{"abi":[{"type":"constructor","inputs":[],"stateMutability":"nonpayable"},{"type":"function","name":"CLOCK_MODE","inputs":[],"outputs":[{"name":"","type":"string","internalType":"string"}],"stateMutability":"view"},{"type":"function","name":"DEFAULT_ADMIN_ROLE","inputs":[],"outputs":[{"name":"","type":"bytes32","internalType":"bytes32"}],"stateMutability":"view"},{"type":"function","name":"DOMAIN_SEPARATOR","inputs":[],"outputs":[{"name":"","type":"bytes32","internalType":"bytes32"}],"stateMutability":"view"},{"type":"function","name":"MINTER_ROLE","inputs":[],"outputs":[{"name":"","type":"bytes32","internalType":"bytes32"}],"stateMutability":"view"},{"type":"function","name":"UPGRADER_ROLE","inputs":[],"outputs":[{"name":"","type":"bytes32","internalType":"bytes32"}],"stateMutability":"view"},{"type":"function","name":"UPGRADE_INTERFACE_VERSION","inputs":[],"outputs":[{"name":"","type":"string","internalType":"string"}],"stateMutability":"view"},{"type":"function","name":"allowance","inputs":[{"name":"owner","type":"address","internalType":"address"},{"name":"spender","type":"address","internalType":"address"}],"outputs":[{"name":"","type":"uint256","internalType":"uint256"}],"stateMutability":"view"},{"type":"function","name":"approve","inputs":[{"name":"spender","type":"address","internalType":"address"},{"name":"amount","type":"uint256","internalType":"uint256"}],"outputs":[{"name":"","type":"bool","internalType":"bool"}],"stateMutability":"nonpayable"},{"type":"function","name":"balanceOf","inputs":[{"name":"account","type":"address","internalType":"address"}],"outputs":[{"name":"","type":"uint256","internalType":"uint256"}],"stateMutability":"view"},{"type":"function","name":"checkpoints","inputs":[{"name":"account","type":"address","internalType":"address"},{"name":"pos","type":"uint32","internalType":"uint32"}],"outputs":[{"name":"","type":"tuple","internalType":"struct Checkpoints.Checkpoint208","components":[{"name":"_key","type":"uint48","internalType":"uint48"},{"name":"_value","type":"uint208","internalType":"uint208"}]}],"stateMutability":"view"},{"type":"function","name":"clock","inputs":[],"outputs":[{"name":"","type":"uint48","internalType":"uint48"}],"stateMutability":"view"},{"type":"function","name":"decimals","inputs":[],"outputs":[{"name":"","type":"uint8","internalType":"uint8"}],"stateMutability":"view"},{"type":"function","name":"delegate","inputs":[{"name":"delegatee","type":"address","internalType":"address"}],"outputs":[],"stateMutability":"nonpayable"},{"type":"function","name":"delegateBySig","inputs":[{"name":"delegatee","type":"address","internalType":"address"},{"name":"nonce","type":"uint256","internalType":"uint256"},{"name":"expiry","type":"uint256","internalType":"uint256"},{"name":"v","type":"uint8","internalType":"uint8"},{"name":"r","type":"bytes32","internalType":"bytes32"},{"name":"s","type":"bytes32","internalType":"bytes32"}],"outputs":[],"stateMutability":"nonpayable"},{"type":"function","name":"delegates","inputs":[{"name":"account","type":"address","internalType":"address"}],"outputs":[{"name":"","type":"address","internalType":"address"}],"stateMutability":"view"},{"type":"function","name":"eip712Domain","inputs":[],"outputs":[{"name":"fields","type":"bytes1","internalType":"bytes1"},{"name":"name","type":"string","internalType":"string"},{"name":"version","type":"string","internalType":"string"},{"name":"chainId","type":"uint256","internalType":"uint256"},{"name":"verifyingContract","type":"address","internalType":"address"},{"name":"salt","type":"bytes32","internalType":"bytes32"},{"name":"extensions","type":"uint256[]","internalType":"uint256[]"}],"stateMutability":"view"},{"type":"function","name":"getPastTotalSupply","inputs":[{"name":"timepoint","type":"uint256","internalType":"uint256"}],"outputs":[{"name":"","type":"uint256","internalType":"uint256"}],"stateMutability":"view"},{"type":"function","name":"getPastVotes","inputs":[{"name":"account","type":"address","internalType":"address"},{"name":"timepoint","type":"uint256","internalType":"uint256"}],"outputs":[{"name":"","type":"uint256","internalType":"uint256"}],"stateMutability":"view"},{"type":"function","name":"getRoleAdmin","inputs":[{"name":"role","type":"bytes32","internalType":"bytes32"}],"outputs":[{"name":"","type":"bytes32","internalType":"bytes32"}],"stateMutability":"view"},{"type":"function","name":"getVotes","inputs":[{"name":"account","type":"address","internalType":"address"}],"outputs":[{"name":"","type":"uint256","internalType":"uint256"}],"stateMutability":"view"},{"type":"function","name":"grantRole","inputs":[{"name":"role","type":"bytes32","internalType":"bytes32"},{"name":"account","type":"address","internalType":"address"}],"outputs":[],"stateMutability":"nonpayable"},{"type":"function","name":"hasRole","inputs":[{"name":"role","type":"bytes32","internalType":"bytes32"},{"name":"account","type":"address","internalType":"address"}],"outputs":[{"name":"","type":"bool","internalType":"bool"}],"stateMutability":"view"},{"type":"function","name":"initialize","inputs":[{"name":"defaultAdmin","type":"address","internalType":"address"},{"name":"minter","type":"address","internalType":"address"},{"name":"upgrader","type":"address","internalType":"address"}],"outputs":[],"stateMutability":"nonpayable"},{"type":"function","name":"mint","inputs":[{"name":"to","type":"address","internalType":"address"},{"name":"amount","type":"uint256","internalType":"uint256"}],"outputs":[],"stateMutability":"nonpayable"},{"type":"function","name":"name","inputs":[],"outputs":[{"name":"","type":"string","internalType":"string"}],"stateMutability":"view"},{"type":"function","name":"nonces","inputs":[{"name":"owner","type":"address","internalType":"address"}],"outputs":[{"name":"","type":"uint256","internalType":"uint256"}],"stateMutability":"view"},{"type":"function","name":"numCheckpoints","inputs":[{"name":"account","type":"address","internalType":"address"}],"outputs":[{"name":"","type":"uint32","internalType":"uint32"}],"stateMutability":"view"},{"type":"function","name":"permit","inputs":[{"name":"owner","type":"address","internalType":"address"},{"name":"spender","type":"address","internalType":"address"},{"name":"value","type":"uint256","internalType":"uint256"},{"name":"deadline","type":"uint256","internalType":"uint256"},{"name":"v","type":"uint8","internalType":"uint8"},{"name":"r","type":"bytes32","internalType":"bytes32"},{"name":"s","type":"bytes32","internalType":"bytes32"}],"outputs":[],"stateMutability":"nonpayable"},{"type":"function","name":"proxiableUUID","inputs":[],"outputs":[{"name":"","type":"bytes32","internalType":"bytes32"}],"stateMutability":"view"},{"type":"function","name":"renounceRole","inputs":[{"name":"role","type":"bytes32","internalType":"bytes32"},{"name":"callerConfirmation","type":"address","internalType":"address"}],"outputs":[],"stateMutability":"nonpayable"},{"type":"function","name":"revokeRole","inputs":[{"name":"role","type":"bytes32","internalType":"bytes32"},{"name":"account","type":"address","internalType":"address"}],"outputs":[],"stateMutability":"nonpayable"},{"type":"function","name":"supportsInterface","inputs":[{"name":"interfaceId","type":"bytes4","internalType":"bytes4"}],"outputs":[{"name":"","type":"bool","internalType":"bool"}],"stateMutability":"view"},{"type":"function","name":"symbol","inputs":[],"outputs":[{"name":"","type":"string","internalType":"string"}],"stateMutability":"view"},{"type":"function","name":"totalSupply","inputs":[],"outputs":[{"name":"","type":"uint256","internalType":"uint256"}],"stateMutability":"view"},{"type":"function","name":"transfer","inputs":[{"name":"to","type":"address","internalType":"address"},{"name":"amount","type":"uint256","internalType":"uint256"}],"outputs":[{"name":"","type":"bool","internalType":"bool"}],"stateMutability":"nonpayable"},{"type":"function","name":"transferFrom","inputs":[{"name":"from","type":"address","internalType":"address"},{"name":"to","type":"address","internalType":"address"},{"name":"amount","type":"uint256","internalType":"uint256"}],"outputs":[{"name":"","type":"bool","internalType":"bool"}],"stateMutability":"nonpayable"},{"type":"function","name":"upgradeToAndCall","inputs":[{"name":"newImplementation","type":"address","internalType":"address"},{"name":"data","type":"bytes","internalType":"bytes"}],"outputs":[],"stateMutability":"payable"},{"type":"event","name":"Approval","inputs":[{"name":"owner","type":"address","indexed":true,"internalType":"address"},{"name":"spender","type":"address","indexed":true,"internalType":"address"},{"name":"value","type":"uint256","indexed":false,"internalType":"uint256"}],"anonymous":false},{"type":"event","name":"DelegateChanged","inputs":[{"name":"delegator","type":"address","indexed":true,"internalType":"address"},{"name":"fromDelegate","type":"address","indexed":true,"internalType":"address"},{"name":"toDelegate","type":"address","indexed":true,"internalType":"address"}],"anonymous":false},{"type":"event","name":"DelegateVotesChanged","inputs":[{"name":"delegate","type":"address","indexed":true,"internalType":"address"},{"name":"previousVotes","type":"uint256","indexed":false,"internalType":"uint256"},{"name":"newVotes","type":"uint256","indexed":false,"internalType":"uint256"}],"anonymous":false},{"type":"event","name":"EIP712DomainChanged","inputs":[],"anonymous":false},{"type":"event","name":"Initialized","inputs":[{"name":"version","type":"uint64","indexed":false,"internalType":"uint64"}],"anonymous":false},{"type":"event","name":"RoleAdminChanged","inputs":[{"name":"role","type":"bytes32","indexed":true,"internalType":"bytes32"},{"name":"previousAdminRole","type":"bytes32","indexed":true,"internalType":"bytes32"},{"name":"newAdminRole","type":"bytes32","indexed":true,"internalType":"bytes32"}],"anonymous":false},{"type":"event","name":"RoleGranted","inputs":[{"name":"role","type":"bytes32","indexed":true,"internalType":"bytes32"},{"name":"account","type":"address","indexed":true,"internalType":"address"},{"name":"sender","type":"address","indexed":true,"internalType":"address"}],"anonymous":false},{"type":"event","name":"RoleRevoked","inputs":[{"name":"role","type":"bytes32","indexed":true,"internalType":"bytes32"},{"name":"account","type":"address","indexed":true,"internalType":"address"},{"name":"sender","type":"address","indexed":true,"internalType":"address"}],"anonymous":false},{"type":"event","name":"Transfer","inputs":[{"name":"from","type":"address","indexed":true,"internalType":"address"},{"name":"to","type":"address","indexed":true,"internalType":"address"},{"name":"value","type":"uint256","indexed":false,"internalType":"uint256"}],"anonymous":false},{"type":"event","name":"Upgraded","inputs":[{"name":"implementation","type":"address","indexed":true,"internalType":"address"}],"anonymous":false},{"type":"error","name":"AccessControlBadConfirmation","inputs":[]},{"type":"error","name":"AccessControlUnauthorizedAccount","inputs":[{"name":"account","type":"address","internalType":"address"},{"name":"neededRole","type":"bytes32","internalType":"bytes32"}]},{"type":"error","name":"AddressEmptyCode","inputs":[{"name":"target","type":"address","internalType":"address"}]},{"type":"error","name":"CheckpointUnorderedInsertion","inputs":[]},{"type":"error","name":"ECDSAInvalidSignature","inputs":[]},{"type":"error","name":"ECDSAInvalidSignatureLength","inputs":[{"name":"length","type":"uint256","internalType":"uint256"}]},{"type":"error","name":"ECDSAInvalidSignatureS","inputs":[{"name":"s","type":"bytes32","internalType":"bytes32"}]},{"type":"error","name":"ERC1967InvalidImplementation","inputs":[{"name":"implementation","type":"address","internalType":"address"}]},{"type":"error","name":"ERC1967NonPayable","inputs":[]},{"type":"error","name":"ERC20ExceededSafeSupply","inputs":[{"name":"increasedSupply","type":"uint256","internalType":"uint256"},{"name":"cap","type":"uint256","internalType":"uint256"}]},{"type":"error","name":"ERC20InsufficientAllowance","inputs":[{"name":"spender","type":"address","internalType":"address"},{"name":"allowance","type":"uint256","internalType":"uint256"},{"name":"needed","type":"uint256","internalType":"uint256"}]},{"type":"error","name":"ERC20InsufficientBalance","inputs":[{"name":"sender","type":"address","internalType":"address"},{"name":"balance","type":"uint256","internalType":"uint256"},{"name":"needed","type":"uint256","internalType":"uint256"}]},{"type":"error","name":"ERC20InvalidApprover","inputs":[{"name":"approver","type":"address","internalType":"address"}]},{"type":"error","name":"ERC20InvalidReceiver","inputs":[{"name":"receiver","type":"address","internalType":"address"}]},{"type":"error","name":"ERC20InvalidSender","inputs":[{"name":"sender","type":"address","internalType":"address"}]},{"type":"error","name":"ERC20InvalidSpender","inputs":[{"name":"spender","type":"address","internalType":"address"}]},{"type":"error","name":"ERC2612ExpiredSignature","inputs":[{"name":"deadline","type":"uint256","internalType":"uint256"}]},{"type":"error","name":"ERC2612InvalidSigner","inputs":[{"name":"signer","type":"address","internalType":"address"},{"name":"owner","type":"address","internalType":"address"}]},{"type":"error","name":"ERC5805FutureLookup","inputs":[{"name":"timepoint","type":"uint256","internalType":"uint256"},{"name":"clock","type":"uint48","internalType":"uint48"}]},{"type":"error","name":"ERC6372InconsistentClock","inputs":[]},{"type":"error","name":"FailedCall","inputs":[]},{"type":"error","name":"InvalidAccountNonce","inputs":[{"name":"account","type":"address","internalType":"address"},{"name":"currentNonce","type":"uint256","internalType":"uint256"}]},{"type":"error","name":"InvalidInitialization","inputs":[]},{"type":"error","name":"NotInitializing","inputs":[]},{"type":"error","name":"SafeCastOverflowedUintDowncast","inputs":[{"name":"bits","type":"uint8","internalType":"uint8"},{"name":"value","type":"uint256","internalType":"uint256"}]},{"type":"error","name":"UUPSUnauthorizedCallContext","inputs":[]},{"type":"error","name":"UUPSUnsupportedProxiableUUID","inputs":[{"name":"slot","type":"bytes32","internalType":"bytes32"}]},{"type":"error","name":"VMahout__TransferNotAllowed","inputs":[]},{"type":"error","name":"VotesExpiredSignature","inputs":[{"name":"expiry","type":"uint256","internalType":"uint256"}]}],"bytecode":{"object":"0x60a06040523073ffffffffffffffffffffffffffffffffffffffff1660809073ffffffffffffffffffffffffffffffffffffffff16815250348015610042575f5ffd5b5061005161005660201b60201c565b6101d1565b5f61006561015460201b60201c565b9050805f0160089054906101000a900460ff16156100af576040517ff92ee8a900000000000000000000000000000000000000000000000000000000815260040160405180910390fd5b67ffffffffffffffff8016815f015f9054906101000a900467ffffffffffffffff1667ffffffffffffffff16146101515767ffffffffffffffff815f015f6101000a81548167ffffffffffffffff021916908367ffffffffffffffff1602179055507fc7f505b2f371ae2175ee4913f4499e1f2633a7b5936321eed1cdaeb6115181d267ffffffffffffffff60405161014891906101b8565b60405180910390a15b50565b5f5f61016461016d60201b60201c565b90508091505090565b5f7ff0c57e16840df040f15088dc2f81fe391c3923bec73e23a9662efc9c229c6a005f1b905090565b5f67ffffffffffffffff82169050919050565b6101b281610196565b82525050565b5f6020820190506101cb5f8301846101a9565b92915050565b60805161515d6101f75f395f8181611c4101528181611c960152611e73015261515d5ff3fe608060405260043610610219575f3560e01c806370a0823111610122578063a9059cbb116100aa578063d53913931161006e578063d539139314610831578063d547741f1461085b578063dd62ed3e14610883578063f1127ed8146108bf578063f72c0d8b146108fb57610219565b8063a9059cbb14610753578063ad3cb1cc1461078f578063c0c53b8b146107b9578063c3cda520146107e1578063d505accf1461080957610219565b806391d14854116100f157806391d148541461065d57806391ddadf41461069957806395d89b41146106c35780639ab24eb0146106ed578063a217fddf1461072957610219565b806370a08231146105795780637ecebe00146105b557806384b0196e146105f15780638e539e8c1461062157610219565b806336568abe116101a55780634f1ef286116101745780634f1ef2861461049357806352d1902d146104af578063587cde1e146104d95780635c19a95c146105155780636fcfff451461053d57610219565b806336568abe146103dd5780633a46b1a81461040557806340c10f19146104415780634bf5d7e91461046957610219565b806323b872dd116101ec57806323b872dd146102e9578063248a9ca3146103255780632f2ff15d14610361578063313ce567146103895780633644e515146103b357610219565b806301ffc9a71461021d57806306fdde0314610259578063095ea7b31461028357806318160ddd146102bf575b5f5ffd5b348015610228575f5ffd5b50610243600480360381019061023e9190613de4565b610925565b6040516102509190613e29565b60405180910390f35b348015610264575f5ffd5b5061026d61099e565b60405161027a9190613eb2565b60405180910390f35b34801561028e575f5ffd5b506102a960048036038101906102a49190613f5f565b610a3c565b6040516102b69190613e29565b60405180910390f35b3480156102ca575f5ffd5b506102d3610a6f565b6040516102e09190613fac565b60405180910390f35b3480156102f4575f5ffd5b5061030f600480360381019061030a9190613fc5565b610a86565b60405161031c9190613e29565b60405180910390f35b348015610330575f5ffd5b5061034b60048036038101906103469190614048565b610ab9565b6040516103589190614082565b60405180910390f35b34801561036c575f5ffd5b506103876004803603810190610382919061409b565b610ae3565b005b348015610394575f5ffd5b5061039d610b05565b6040516103aa91906140f4565b60405180910390f35b3480156103be575f5ffd5b506103c7610b0d565b6040516103d49190614082565b60405180910390f35b3480156103e8575f5ffd5b5061040360048036038101906103fe919061409b565b610b1b565b005b348015610410575f5ffd5b5061042b60048036038101906104269190613f5f565b610b96565b6040516104389190613fac565b60405180910390f35b34801561044c575f5ffd5b5061046760048036038101906104629190613f5f565b610c20565b005b348015610474575f5ffd5b5061047d610c59565b60405161048a9190613eb2565b60405180910390f35b6104ad60048036038101906104a89190614239565b610ced565b005b3480156104ba575f5ffd5b506104c3610d0c565b6040516104d09190614082565b60405180910390f35b3480156104e4575f5ffd5b506104ff60048036038101906104fa9190614293565b610d3d565b60405161050c91906142cd565b60405180910390f35b348015610520575f5ffd5b5061053b60048036038101906105369190614293565b610daf565b005b348015610548575f5ffd5b50610563600480360381019061055e9190614293565b610dc8565b6040516105709190614304565b60405180910390f35b348015610584575f5ffd5b5061059f600480360381019061059a9190614293565b610dd9565b6040516105ac9190613fac565b60405180910390f35b3480156105c0575f5ffd5b506105db60048036038101906105d69190614293565b610e2c565b6040516105e89190613fac565b60405180910390f35b3480156105fc575f5ffd5b50610605610e3d565b604051610618979695949392919061440e565b60405180910390f35b34801561062c575f5ffd5b5061064760048036038101906106429190614490565b610f46565b6040516106549190613fac565b60405180910390f35b348015610668575f5ffd5b50610683600480360381019061067e919061409b565b610f94565b6040516106909190613e29565b60405180910390f35b3480156106a4575f5ffd5b506106ad611005565b6040516106ba91906144db565b60405180910390f35b3480156106ce575f5ffd5b506106d7611013565b6040516106e49190613eb2565b60405180910390f35b3480156106f8575f5ffd5b50610713600480360381019061070e9190614293565b6110b1565b6040516107209190613fac565b60405180910390f35b348015610734575f5ffd5b5061073d611128565b60405161074a9190614082565b60405180910390f35b34801561075e575f5ffd5b5061077960048036038101906107749190613f5f565b61112e565b6040516107869190613e29565b60405180910390f35b34801561079a575f5ffd5b506107a3611161565b6040516107b09190613eb2565b60405180910390f35b3480156107c4575f5ffd5b506107df60048036038101906107da91906144f4565b61119a565b005b3480156107ec575f5ffd5b506108076004803603810190610802919061456e565b611441565b005b348015610814575f5ffd5b5061082f600480360381019061082a91906145f7565b611506565b005b34801561083c575f5ffd5b5061084561164b565b6040516108529190614082565b60405180910390f35b348015610866575f5ffd5b50610881600480360381019061087c919061409b565b61166f565b005b34801561088e575f5ffd5b506108a960048036038101906108a49190614694565b611691565b6040516108b69190613fac565b60405180910390f35b3480156108ca575f5ffd5b506108e560048036038101906108e091906146fc565b611721565b6040516108f291906147aa565b60405180910390f35b348015610906575f5ffd5b5061090f61173b565b60405161091c9190614082565b60405180910390f35b5f7f7965db0b000000000000000000000000000000000000000000000000000000007bffffffffffffffffffffffffffffffffffffffffffffffffffffffff1916827bffffffffffffffffffffffffffffffffffffffffffffffffffffffff1916148061099757506109968261175f565b5b9050919050565b60605f6109a96117c8565b90508060030180546109ba906147f0565b80601f01602080910402602001604051908101604052809291908181526020018280546109e6906147f0565b8015610a315780601f10610a0857610100808354040283529160200191610a31565b820191905f5260205f20905b815481529060010190602001808311610a1457829003601f168201915b505050505091505090565b5f6040517f88774a4d00000000000000000000000000000000000000000000000000000000815260040160405180910390fd5b5f5f610a796117c8565b9050806002015491505090565b5f6040517f88774a4d00000000000000000000000000000000000000000000000000000000815260040160405180910390fd5b5f5f610ac36117ef565b9050805f015f8481526020019081526020015f2060010154915050919050565b610aec82610ab9565b610af581611816565b610aff838361182a565b50505050565b5f6012905090565b5f610b16611922565b905090565b610b23611930565b73ffffffffffffffffffffffffffffffffffffffff168173ffffffffffffffffffffffffffffffffffffffff1614610b87576040517f6697b23200000000000000000000000000000000000000000000000000000000815260040160405180910390fd5b610b918282611937565b505050565b5f5f610ba0611a2f565b9050610bfb610bae84611a56565b826001015f8773ffffffffffffffffffffffffffffffffffffffff1673ffffffffffffffffffffffffffffffffffffffff1681526020019081526020015f20611ac190919063ffffffff16565b79ffffffffffffffffffffffffffffffffffffffffffffffffffff1691505092915050565b7f9f2df0fed2c77648de5860a4cc508cd0818c85b8b8a1ab4ceeef8d981c8956a6610c4a81611816565b610c548383611bb1565b505050565b6060610c63611c30565b65ffffffffffff16610c73611005565b65ffffffffffff1614610cb2576040517f6ff0714000000000000000000000000000000000000000000000000000000000815260040160405180910390fd5b6040518060400160405280601d81526020017f6d6f64653d626c6f636b6e756d6265722666726f6d3d64656661756c74000000815250905090565b610cf5611c3f565b610cfe82611d25565b610d088282611d53565b5050565b5f610d15611e71565b7f360894a13ba1a3210667c828492db98dca3e2076cc3735a920a3ca505d382bbc5f1b905090565b5f5f610d47611a2f565b9050805f015f8473ffffffffffffffffffffffffffffffffffffffff1673ffffffffffffffffffffffffffffffffffffffff1681526020019081526020015f205f9054906101000a900473ffffffffffffffffffffffffffffffffffffffff16915050919050565b5f610db8611930565b9050610dc48183611ef8565b5050565b5f610dd282612015565b9050919050565b5f5f610de36117c8565b9050805f015f8473ffffffffffffffffffffffffffffffffffffffff1673ffffffffffffffffffffffffffffffffffffffff1681526020019081526020015f2054915050919050565b5f610e3682612078565b9050919050565b5f6060805f5f5f60605f610e4f612089565b90505f5f1b815f0154148015610e6a57505f5f1b8160010154145b610ea9576040517f08c379a0000000000000000000000000000000000000000000000000000000008152600401610ea09061486a565b60405180910390fd5b610eb16120b0565b610eb961214e565b46305f5f1b5f67ffffffffffffffff811115610ed857610ed7614115565b5b604051908082528060200260200182016040528015610f065781602001602082028036833780820191505090505b507f0f0000000000000000000000000000000000000000000000000000000000000095949392919097509750975097509750975097505090919293949596565b5f5f610f50611a2f565b9050610f70610f5e84611a56565b82600201611ac190919063ffffffff16565b79ffffffffffffffffffffffffffffffffffffffffffffffffffff16915050919050565b5f5f610f9e6117ef565b9050805f015f8581526020019081526020015f205f015f8473ffffffffffffffffffffffffffffffffffffffff1673ffffffffffffffffffffffffffffffffffffffff1681526020019081526020015f205f9054906101000a900460ff1691505092915050565b5f61100e611c30565b905090565b60605f61101e6117c8565b905080600401805461102f906147f0565b80601f016020809104026020016040519081016040528092919081815260200182805461105b906147f0565b80156110a65780601f1061107d576101008083540402835291602001916110a6565b820191905f5260205f20905b81548152906001019060200180831161108957829003601f168201915b505050505091505090565b5f5f6110bb611a2f565b9050611104816001015f8573ffffffffffffffffffffffffffffffffffffffff1673ffffffffffffffffffffffffffffffffffffffff1681526020019081526020015f206121ec565b79ffffffffffffffffffffffffffffffffffffffffffffffffffff16915050919050565b5f5f1b81565b5f6040517f88774a4d00000000000000000000000000000000000000000000000000000000815260040160405180910390fd5b6040518060400160405280600581526020017f352e302e3000000000000000000000000000000000000000000000000000000081525081565b5f6111a361224e565b90505f815f0160089054906101000a900460ff161590505f825f015f9054906101000a900467ffffffffffffffff1690505f5f8267ffffffffffffffff161480156111eb5750825b90505f60018367ffffffffffffffff1614801561121e57505f3073ffffffffffffffffffffffffffffffffffffffff163b145b90508115801561122c575080155b15611263576040517ff92ee8a900000000000000000000000000000000000000000000000000000000815260040160405180910390fd5b6001855f015f6101000a81548167ffffffffffffffff021916908367ffffffffffffffff16021790555083156112b0576001855f0160086101000a81548160ff0219169083151502179055505b6113246040518060400160405280600781526020017f764d61686f7574000000000000000000000000000000000000000000000000008152506040518060400160405280600481526020017f564d485400000000000000000000000000000000000000000000000000000000815250612261565b61132c612277565b61136a6040518060400160405280600781526020017f764d61686f757400000000000000000000000000000000000000000000000000815250612281565b6113726122cb565b61137a6122d5565b6113865f5f1b8961182a565b506113b17f9f2df0fed2c77648de5860a4cc508cd0818c85b8b8a1ab4ceeef8d981c8956a68861182a565b506113dc7f189ab7a9244df0848122154315af71fe140f3db0fe014031783b0946b8c9d2e38761182a565b508315611437575f855f0160086101000a81548160ff0219169083151502179055507fc7f505b2f371ae2175ee4913f4499e1f2633a7b5936321eed1cdaeb6115181d2600160405161142e91906148dd565b60405180910390a15b5050505050505050565b8342111561148657836040517f4683af0e00000000000000000000000000000000000000000000000000000000815260040161147d9190613fac565b60405180910390fd5b5f6114e76114df7fe48329057bfd03d55e49b547132e39cffd9c1820ad7b9d4c5307691425d15adf8989896040516020016114c494939291906148f6565b604051602081830303815290604052805190602001206122df565b8585856122f8565b90506114f38187612326565b6114fd8188611ef8565b50505050505050565b8342111561154b57836040517f627913020000000000000000000000000000000000000000000000000000000081526004016115429190613fac565b60405180910390fd5b5f7f6e71edae12b1b97f4d1f60370fef10105fa2faae0126114a169c64845d6126c98888886115798c61237d565b8960405160200161158f96959493929190614939565b6040516020818303038152906040528051906020012090505f6115b1826122df565b90505f6115c0828787876122f8565b90508973ffffffffffffffffffffffffffffffffffffffff168173ffffffffffffffffffffffffffffffffffffffff161461163457808a6040517f4b800e4600000000000000000000000000000000000000000000000000000000815260040161162b929190614998565b60405180910390fd5b61163f8a8a8a6123dd565b50505050505050505050565b7f9f2df0fed2c77648de5860a4cc508cd0818c85b8b8a1ab4ceeef8d981c8956a681565b61167882610ab9565b61168181611816565b61168b8383611937565b50505050565b5f5f61169b6117c8565b9050806001015f8573ffffffffffffffffffffffffffffffffffffffff1673ffffffffffffffffffffffffffffffffffffffff1681526020019081526020015f205f8473ffffffffffffffffffffffffffffffffffffffff1673ffffffffffffffffffffffffffffffffffffffff1681526020019081526020015f205491505092915050565b611729613d42565b61173383836123ef565b905092915050565b7f189ab7a9244df0848122154315af71fe140f3db0fe014031783b0946b8c9d2e381565b5f7f01ffc9a7000000000000000000000000000000000000000000000000000000007bffffffffffffffffffffffffffffffffffffffffffffffffffffffff1916827bffffffffffffffffffffffffffffffffffffffffffffffffffffffff1916149050919050565b5f7f52c63247e1f47db19d5ce0460030c497f067ca4cebf71ba98eeadabe20bace00905090565b5f7f02dd7bc7dec4dceedda775e58dd541e08a116c6c53815c0bd028192f7b626800905090565b61182781611822611930565b61245c565b50565b5f5f6118346117ef565b90506118408484610f94565b611917576001815f015f8681526020019081526020015f205f015f8573ffffffffffffffffffffffffffffffffffffffff1673ffffffffffffffffffffffffffffffffffffffff1681526020019081526020015f205f6101000a81548160ff0219169083151502179055506118b3611930565b73ffffffffffffffffffffffffffffffffffffffff168373ffffffffffffffffffffffffffffffffffffffff16857f2f8788117e7eff1d82e926ec794901d17c78024a50270940304540a733656f0d60405160405180910390a4600191505061191c565b5f9150505b92915050565b5f61192b6124ad565b905090565b5f33905090565b5f5f6119416117ef565b905061194d8484610f94565b15611a24575f815f015f8681526020019081526020015f205f015f8573ffffffffffffffffffffffffffffffffffffffff1673ffffffffffffffffffffffffffffffffffffffff1681526020019081526020015f205f6101000a81548160ff0219169083151502179055506119c0611930565b73ffffffffffffffffffffffffffffffffffffffff168373ffffffffffffffffffffffffffffffffffffffff16857ff6391f5c32d9c69d2a47ea670b442974b53935d1edc7fd64eb21e047a839171b60405160405180910390a46001915050611a29565b5f9150505b92915050565b5f7fe8b26c30fad74198956032a3533d903385d56dd795af560196f9c78d4af40d00905090565b5f5f611a60611005565b90508065ffffffffffff168310611ab05782816040517fecd3f81e000000000000000000000000000000000000000000000000000000008152600401611aa79291906149bf565b60405180910390fd5b611ab983612510565b915050919050565b5f5f835f018054905090505f5f90505f8290506005831115611b45575f611ae784612569565b84611af29190614a13565b9050611b00875f0182612703565b5f015f9054906101000a900465ffffffffffff1665ffffffffffff168665ffffffffffff161015611b3357809150611b43565b600181611b409190614a46565b92505b505b5f611b54875f01878585612715565b90505f8114611ba357611b75875f01600183611b709190614a13565b612703565b5f0160069054906101000a900479ffffffffffffffffffffffffffffffffffffffffffffffffffff16611ba5565b5f5b94505050505092915050565b5f73ffffffffffffffffffffffffffffffffffffffff168273ffffffffffffffffffffffffffffffffffffffff1603611c21575f6040517fec442f05000000000000000000000000000000000000000000000000000000008152600401611c1891906142cd565b60405180910390fd5b611c2c5f838361278a565b5050565b5f611c3a43612510565b905090565b7f000000000000000000000000000000000000000000000000000000000000000073ffffffffffffffffffffffffffffffffffffffff163073ffffffffffffffffffffffffffffffffffffffff161480611cec57507f000000000000000000000000000000000000000000000000000000000000000073ffffffffffffffffffffffffffffffffffffffff16611cd361279a565b73ffffffffffffffffffffffffffffffffffffffff1614155b15611d23576040517fe07c8dba00000000000000000000000000000000000000000000000000000000815260040160405180910390fd5b565b7f189ab7a9244df0848122154315af71fe140f3db0fe014031783b0946b8c9d2e3611d4f81611816565b5050565b8173ffffffffffffffffffffffffffffffffffffffff166352d1902d6040518163ffffffff1660e01b8152600401602060405180830381865afa925050508015611dbb57506040513d601f19601f82011682018060405250810190611db89190614a8d565b60015b611dfc57816040517f4c9c8ce3000000000000000000000000000000000000000000000000000000008152600401611df391906142cd565b60405180910390fd5b7f360894a13ba1a3210667c828492db98dca3e2076cc3735a920a3ca505d382bbc5f1b8114611e6257806040517faa1d49a4000000000000000000000000000000000000000000000000000000008152600401611e599190614082565b60405180910390fd5b611e6c83836127ed565b505050565b7f000000000000000000000000000000000000000000000000000000000000000073ffffffffffffffffffffffffffffffffffffffff163073ffffffffffffffffffffffffffffffffffffffff1614611ef6576040517fe07c8dba00000000000000000000000000000000000000000000000000000000815260040160405180910390fd5b565b5f611f01611a2f565b90505f611f0d84610d3d565b905082825f015f8673ffffffffffffffffffffffffffffffffffffffff1673ffffffffffffffffffffffffffffffffffffffff1681526020019081526020015f205f6101000a81548173ffffffffffffffffffffffffffffffffffffffff021916908373ffffffffffffffffffffffffffffffffffffffff1602179055508273ffffffffffffffffffffffffffffffffffffffff168173ffffffffffffffffffffffffffffffffffffffff168573ffffffffffffffffffffffffffffffffffffffff167f3134e8a2e6d97e929a7e54011ea5485d7d196dd5f0ba4d4ef95803e8e3fc257f60405160405180910390a461200f818461200a8761285f565b612870565b50505050565b5f5f61201f611a2f565b905061207061206b826001015f8673ffffffffffffffffffffffffffffffffffffffff1673ffffffffffffffffffffffffffffffffffffffff1681526020019081526020015f20612af0565b612aff565b915050919050565b5f61208282612b56565b9050919050565b5f7fa16a46d94261c7517cc8ff89f61c0ce93598e3c849801011dee649a6a557d100905090565b60605f6120bb612089565b90508060020180546120cc906147f0565b80601f01602080910402602001604051908101604052809291908181526020018280546120f8906147f0565b80156121435780601f1061211a57610100808354040283529160200191612143565b820191905f5260205f20905b81548152906001019060200180831161212657829003601f168201915b505050505091505090565b60605f612159612089565b905080600301805461216a906147f0565b80601f0160208091040260200160405190810160405280929190818152602001828054612196906147f0565b80156121e15780601f106121b8576101008083540402835291602001916121e1565b820191905f5260205f20905b8154815290600101906020018083116121c457829003601f168201915b505050505091505090565b5f5f825f018054905090505f811461224457612216835f016001836122119190614a13565b612703565b5f0160069054906101000a900479ffffffffffffffffffffffffffffffffffffffffffffffffffff16612246565b5f5b915050919050565b5f5f612258612ba9565b90508091505090565b612269612bd2565b6122738282612c12565b5050565b61227f612bd2565b565b612289612bd2565b6122c8816040518060400160405280600181526020017f3100000000000000000000000000000000000000000000000000000000000000815250612c4e565b50565b6122d3612bd2565b565b6122dd612bd2565b565b5f6122f16122eb611922565b83612c9f565b9050919050565b5f5f5f5f61230888888888612cdf565b9250925092506123188282612dc6565b829350505050949350505050565b5f6123308361237d565b90508082146123785782816040517f752d88c000000000000000000000000000000000000000000000000000000000815260040161236f929190614ab8565b60405180910390fd5b505050565b5f5f612387612f28565b9050805f015f8473ffffffffffffffffffffffffffffffffffffffff1673ffffffffffffffffffffffffffffffffffffffff1681526020019081526020015f205f81548092919060010191905055915050919050565b6123ea8383836001612f4f565b505050565b6123f7613d42565b5f612400611a2f565b905061245383826001015f8773ffffffffffffffffffffffffffffffffffffffff1673ffffffffffffffffffffffffffffffffffffffff1681526020019081526020015f2061312c90919063ffffffff16565b91505092915050565b6124668282610f94565b6124a95780826040517fe2517d3f0000000000000000000000000000000000000000000000000000000081526004016124a0929190614adf565b60405180910390fd5b5050565b5f7f8b73c3c69bb8fe3d512ecc4cf759cc79239f7b179b0ffacaa9a75d522b39400f6124d76131fb565b6124df613271565b46306040516020016124f5959493929190614b06565b60405160208183030381529060405280519060200120905090565b5f65ffffffffffff8016821115612561576030826040517f6dfcc650000000000000000000000000000000000000000000000000000000008152600401612558929190614b90565b60405180910390fd5b819050919050565b5f6001821161257a578190506126fe565b5f8290505f6001905070010000000000000000000000000000000082106125aa57608082901c9150604081901b90505b6801000000000000000082106125c957604082901c9150602081901b90505b64010000000082106125e457602082901c9150601081901b90505b6201000082106125fd57601082901c9150600881901b90505b610100821061261557600882901c9150600481901b90505b6010821061262c57600482901c9150600281901b90505b6004821061263c57600181901b90505b600181600302901c9050600181858161265857612657614bb7565b5b048201901c9050600181858161267157612670614bb7565b5b048201901c9050600181858161268a57612689614bb7565b5b048201901c905060018185816126a3576126a2614bb7565b5b048201901c905060018185816126bc576126bb614bb7565b5b048201901c905060018185816126d5576126d4614bb7565b5b048201901c90506126f78185816126ef576126ee614bb7565b5b0482116132e8565b8103925050505b919050565b5f825f528160205f2001905092915050565b5f5b8183101561277f575f61272a84846132f3565b90508465ffffffffffff1661273f8783612703565b5f015f9054906101000a900465ffffffffffff1665ffffffffffff16111561276957809250612779565b6001816127769190614a46565b93505b50612717565b819050949350505050565b612795838383613318565b505050565b5f6127c67f360894a13ba1a3210667c828492db98dca3e2076cc3735a920a3ca505d382bbc5f1b6133c6565b5f015f9054906101000a900473ffffffffffffffffffffffffffffffffffffffff16905090565b6127f6826133cf565b8173ffffffffffffffffffffffffffffffffffffffff167fbc7cd75a20ee27fd9adebab32041f755214dbc6bffa90cc0225b39da2e5c2d3b60405160405180910390a25f815111156128525761284c8282613498565b5061285b565b61285a613518565b5b5050565b5f61286982610dd9565b9050919050565b5f612879611a2f565b90508273ffffffffffffffffffffffffffffffffffffffff168473ffffffffffffffffffffffffffffffffffffffff16141580156128b657505f82115b15612aea575f73ffffffffffffffffffffffffffffffffffffffff168473ffffffffffffffffffffffffffffffffffffffff16146129d2575f5f612943836001015f8873ffffffffffffffffffffffffffffffffffffffff1673ffffffffffffffffffffffffffffffffffffffff1681526020019081526020015f2061355461293e87613569565b6135d6565b79ffffffffffffffffffffffffffffffffffffffffffffffffffff16915079ffffffffffffffffffffffffffffffffffffffffffffffffffff1691508573ffffffffffffffffffffffffffffffffffffffff167fdec2bacdd2f05b59de34da9b523dff8be42e5e38e818c82fdb0bae774387a72483836040516129c7929190614be4565b60405180910390a250505b5f73ffffffffffffffffffffffffffffffffffffffff168373ffffffffffffffffffffffffffffffffffffffff1614612ae9575f5f612a5a836001015f8773ffffffffffffffffffffffffffffffffffffffff1673ffffffffffffffffffffffffffffffffffffffff1681526020019081526020015f20613615612a5587613569565b6135d6565b79ffffffffffffffffffffffffffffffffffffffffffffffffffff16915079ffffffffffffffffffffffffffffffffffffffffffffffffffff1691508473ffffffffffffffffffffffffffffffffffffffff167fdec2bacdd2f05b59de34da9b523dff8be42e5e38e818c82fdb0bae774387a7248383604051612ade929190614be4565b60405180910390a250505b5b50505050565b5f815f01805490509050919050565b5f63ffffffff8016821115612b4e576020826040517f6dfcc650000000000000000000000000000000000000000000000000000000008152600401612b45929190614c44565b60405180910390fd5b819050919050565b5f5f612b60612f28565b9050805f015f8473ffffffffffffffffffffffffffffffffffffffff1673ffffffffffffffffffffffffffffffffffffffff1681526020019081526020015f2054915050919050565b5f7ff0c57e16840df040f15088dc2f81fe391c3923bec73e23a9662efc9c229c6a005f1b905090565b612bda61362a565b612c10576040517fd7e6bcf800000000000000000000000000000000000000000000000000000000815260040160405180910390fd5b565b612c1a612bd2565b5f612c236117c8565b905082816003019081612c369190614e02565b5081816004019081612c489190614e02565b50505050565b612c56612bd2565b5f612c5f612089565b905082816002019081612c729190614e02565b5081816003019081612c849190614e02565b505f5f1b815f01819055505f5f1b8160010181905550505050565b5f6040517f190100000000000000000000000000000000000000000000000000000000000081528360028201528260228201526042812091505092915050565b5f5f5f7f7fffffffffffffffffffffffffffffff5d576e7357a4501ddfe92f46681b20a0845f1c1115612d1b575f600385925092509250612dbc565b5f6001888888886040515f8152602001604052604051612d3e9493929190614ed1565b6020604051602081039080840390855afa158015612d5e573d5f5f3e3d5ffd5b5050506020604051035190505f73ffffffffffffffffffffffffffffffffffffffff168173ffffffffffffffffffffffffffffffffffffffff1603612daf575f60015f5f1b93509350935050612dbc565b805f5f5f1b935093509350505b9450945094915050565b5f6003811115612dd957612dd8614f14565b5b826003811115612dec57612deb614f14565b5b0315612f245760016003811115612e0657612e05614f14565b5b826003811115612e1957612e18614f14565b5b03612e50576040517ff645eedf00000000000000000000000000000000000000000000000000000000815260040160405180910390fd5b60026003811115612e6457612e63614f14565b5b826003811115612e7757612e76614f14565b5b03612ebb57805f1c6040517ffce698f7000000000000000000000000000000000000000000000000000000008152600401612eb29190613fac565b60405180910390fd5b600380811115612ece57612ecd614f14565b5b826003811115612ee157612ee0614f14565b5b03612f2357806040517fd78bce0c000000000000000000000000000000000000000000000000000000008152600401612f1a9190614082565b60405180910390fd5b5b5050565b5f7f5ab42ced628888259c08ac98db1eb0cf702fc1501344311d8b100cd1bfe4bb00905090565b5f612f586117c8565b90505f73ffffffffffffffffffffffffffffffffffffffff168573ffffffffffffffffffffffffffffffffffffffff1603612fca575f6040517fe602df05000000000000000000000000000000000000000000000000000000008152600401612fc191906142cd565b60405180910390fd5b5f73ffffffffffffffffffffffffffffffffffffffff168473ffffffffffffffffffffffffffffffffffffffff160361303a575f6040517f94280d6200000000000000000000000000000000000000000000000000000000815260040161303191906142cd565b60405180910390fd5b82816001015f8773ffffffffffffffffffffffffffffffffffffffff1673ffffffffffffffffffffffffffffffffffffffff1681526020019081526020015f205f8673ffffffffffffffffffffffffffffffffffffffff1673ffffffffffffffffffffffffffffffffffffffff1681526020019081526020015f20819055508115613125578373ffffffffffffffffffffffffffffffffffffffff168573ffffffffffffffffffffffffffffffffffffffff167f8c5be1e5ebec7d5bd14f71427d1e84f3dd0314c0f7b2291e5b200ac8c7c3b9258560405161311c9190613fac565b60405180910390a35b5050505050565b613134613d42565b825f018263ffffffff168154811061314f5761314e614f41565b5b905f5260205f20016040518060400160405290815f82015f9054906101000a900465ffffffffffff1665ffffffffffff1665ffffffffffff1681526020015f820160069054906101000a900479ffffffffffffffffffffffffffffffffffffffffffffffffffff1679ffffffffffffffffffffffffffffffffffffffffffffffffffff1679ffffffffffffffffffffffffffffffffffffffffffffffffffff1681525050905092915050565b5f5f613205612089565b90505f6132106120b0565b90505f8151111561322c5780805190602001209250505061326e565b5f825f015490505f5f1b81146132475780935050505061326e565b7fc5d2460186f7233c927e7db2dcc703c0e500b653ca82273b7bfad8045d85a47093505050505b90565b5f5f61327b612089565b90505f61328661214e565b90505f815111156132a2578080519060200120925050506132e5565b5f826001015490505f5f1b81146132be578093505050506132e5565b7fc5d2460186f7233c927e7db2dcc703c0e500b653ca82273b7bfad8045d85a47093505050505b90565b5f8115159050919050565b5f60028284186133039190614f6e565b8284166133109190614a46565b905092915050565b613323838383613648565b5f73ffffffffffffffffffffffffffffffffffffffff168373ffffffffffffffffffffffffffffffffffffffff16036133b6575f61335f610a6f565b90505f61336a613877565b9050808211156133b35781816040517f1cb15d260000000000000000000000000000000000000000000000000000000081526004016133aa929190614be4565b60405180910390fd5b50505b6133c183838361389a565b505050565b5f819050919050565b5f8173ffffffffffffffffffffffffffffffffffffffff163b0361342a57806040517f4c9c8ce300000000000000000000000000000000000000000000000000000000815260040161342191906142cd565b60405180910390fd5b806134567f360894a13ba1a3210667c828492db98dca3e2076cc3735a920a3ca505d382bbc5f1b6133c6565b5f015f6101000a81548173ffffffffffffffffffffffffffffffffffffffff021916908373ffffffffffffffffffffffffffffffffffffffff16021790555050565b60605f5f8473ffffffffffffffffffffffffffffffffffffffff16846040516134c19190614fe2565b5f60405180830381855af49150503d805f81146134f9576040519150601f19603f3d011682016040523d82523d5f602084013e6134fe565b606091505b509150915061350e858383613962565b9250505092915050565b5f341115613552576040517fb398979f00000000000000000000000000000000000000000000000000000000815260040160405180910390fd5b565b5f81836135619190614ff8565b905092915050565b5f79ffffffffffffffffffffffffffffffffffffffffffffffffffff80168211156135ce5760d0826040517f6dfcc6500000000000000000000000000000000000000000000000000000000081526004016135c592919061507e565b60405180910390fd5b819050919050565b5f5f6136096135e3611005565b6135f96135ef886121ec565b868863ffffffff16565b876139ef9092919063ffffffff16565b91509150935093915050565b5f818361362291906150a5565b905092915050565b5f61363361224e565b5f0160089054906101000a900460ff16905090565b5f6136516117c8565b90505f73ffffffffffffffffffffffffffffffffffffffff168473ffffffffffffffffffffffffffffffffffffffff16036136a55781816002015f8282546136999190614a46565b92505081905550613777565b5f815f015f8673ffffffffffffffffffffffffffffffffffffffff1673ffffffffffffffffffffffffffffffffffffffff1681526020019081526020015f2054905082811015613730578481846040517fe450d38c000000000000000000000000000000000000000000000000000000008152600401613727939291906150f2565b60405180910390fd5b828103825f015f8773ffffffffffffffffffffffffffffffffffffffff1673ffffffffffffffffffffffffffffffffffffffff1681526020019081526020015f2081905550505b5f73ffffffffffffffffffffffffffffffffffffffff168373ffffffffffffffffffffffffffffffffffffffff16036137c05781816002015f828254039250508190555061380c565b81815f015f8573ffffffffffffffffffffffffffffffffffffffff1673ffffffffffffffffffffffffffffffffffffffff1681526020019081526020015f205f82825401925050819055505b8273ffffffffffffffffffffffffffffffffffffffff168473ffffffffffffffffffffffffffffffffffffffff167fddf252ad1be2c89b69c2b068fc378daa952ba7f163c4a11628f55a4df523b3ef846040516138699190613fac565b60405180910390a350505050565b5f79ffffffffffffffffffffffffffffffffffffffffffffffffffff8016905090565b5f6138a3611a2f565b90505f73ffffffffffffffffffffffffffffffffffffffff168473ffffffffffffffffffffffffffffffffffffffff16036138f3576138f0816002016136156138eb85613569565b6135d6565b50505b5f73ffffffffffffffffffffffffffffffffffffffff168373ffffffffffffffffffffffffffffffffffffffff16036139415761393e8160020161355461393985613569565b6135d6565b50505b61395c61394d85610d3d565b61395685610d3d565b84612870565b50505050565b6060826139775761397282613a0a565b6139e7565b5f825114801561399d57505f8473ffffffffffffffffffffffffffffffffffffffff163b145b156139df57836040517f9996b3150000000000000000000000000000000000000000000000000000000081526004016139d691906142cd565b60405180910390fd5b8190506139e8565b5b9392505050565b5f5f6139fe855f018585613a4e565b91509150935093915050565b5f81511115613a1c5780518082602001fd5b6040517fd6bda27500000000000000000000000000000000000000000000000000000000815260040160405180910390fd5b5f5f5f858054905090505f811115613c5a575f613a7787600184613a729190614a13565b612703565b90505f815f015f9054906101000a900465ffffffffffff1690505f825f0160069054906101000a900479ffffffffffffffffffffffffffffffffffffffffffffffffffff1690508765ffffffffffff168265ffffffffffff161115613b08576040517f2520601d00000000000000000000000000000000000000000000000000000000815260040160405180910390fd5b8765ffffffffffff168265ffffffffffff1603613b725786835f0160066101000a81548179ffffffffffffffffffffffffffffffffffffffffffffffffffff021916908379ffffffffffffffffffffffffffffffffffffffffffffffffffff160217905550613c4b565b8860405180604001604052808a65ffffffffffff1681526020018979ffffffffffffffffffffffffffffffffffffffffffffffffffff16815250908060018154018082558091505060019003905f5260205f20015f909190919091505f820151815f015f6101000a81548165ffffffffffff021916908365ffffffffffff1602179055506020820151815f0160066101000a81548179ffffffffffffffffffffffffffffffffffffffffffffffffffff021916908379ffffffffffffffffffffffffffffffffffffffffffffffffffff16021790555050505b80879550955050505050613d3a565b8560405180604001604052808765ffffffffffff1681526020018679ffffffffffffffffffffffffffffffffffffffffffffffffffff16815250908060018154018082558091505060019003905f5260205f20015f909190919091505f820151815f015f6101000a81548165ffffffffffff021916908365ffffffffffff1602179055506020820151815f0160066101000a81548179ffffffffffffffffffffffffffffffffffffffffffffffffffff021916908379ffffffffffffffffffffffffffffffffffffffffffffffffffff16021790555050505f8492509250505b935093915050565b60405180604001604052805f65ffffffffffff1681526020015f79ffffffffffffffffffffffffffffffffffffffffffffffffffff1681525090565b5f604051905090565b5f5ffd5b5f5ffd5b5f7fffffffff0000000000000000000000000000000000000000000000000000000082169050919050565b613dc381613d8f565b8114613dcd575f5ffd5b50565b5f81359050613dde81613dba565b92915050565b5f60208284031215613df957613df8613d87565b5b5f613e0684828501613dd0565b91505092915050565b5f8115159050919050565b613e2381613e0f565b82525050565b5f602082019050613e3c5f830184613e1a565b92915050565b5f81519050919050565b5f82825260208201905092915050565b8281835e5f83830152505050565b5f601f19601f8301169050919050565b5f613e8482613e42565b613e8e8185613e4c565b9350613e9e818560208601613e5c565b613ea781613e6a565b840191505092915050565b5f6020820190508181035f830152613eca8184613e7a565b905092915050565b5f73ffffffffffffffffffffffffffffffffffffffff82169050919050565b5f613efb82613ed2565b9050919050565b613f0b81613ef1565b8114613f15575f5ffd5b50565b5f81359050613f2681613f02565b92915050565b5f819050919050565b613f3e81613f2c565b8114613f48575f5ffd5b50565b5f81359050613f5981613f35565b92915050565b5f5f60408385031215613f7557613f74613d87565b5b5f613f8285828601613f18565b9250506020613f9385828601613f4b565b9150509250929050565b613fa681613f2c565b82525050565b5f602082019050613fbf5f830184613f9d565b92915050565b5f5f5f60608486031215613fdc57613fdb613d87565b5b5f613fe986828701613f18565b9350506020613ffa86828701613f18565b925050604061400b86828701613f4b565b9150509250925092565b5f819050919050565b61402781614015565b8114614031575f5ffd5b50565b5f813590506140428161401e565b92915050565b5f6020828403121561405d5761405c613d87565b5b5f61406a84828501614034565b91505092915050565b61407c81614015565b82525050565b5f6020820190506140955f830184614073565b92915050565b5f5f604083850312156140b1576140b0613d87565b5b5f6140be85828601614034565b92505060206140cf85828601613f18565b9150509250929050565b5f60ff82169050919050565b6140ee816140d9565b82525050565b5f6020820190506141075f8301846140e5565b92915050565b5f5ffd5b5f5ffd5b7f4e487b71000000000000000000000000000000000000000000000000000000005f52604160045260245ffd5b61414b82613e6a565b810181811067ffffffffffffffff8211171561416a57614169614115565b5b80604052505050565b5f61417c613d7e565b90506141888282614142565b919050565b5f67ffffffffffffffff8211156141a7576141a6614115565b5b6141b082613e6a565b9050602081019050919050565b828183375f83830152505050565b5f6141dd6141d88461418d565b614173565b9050828152602081018484840111156141f9576141f8614111565b5b6142048482856141bd565b509392505050565b5f82601f8301126142205761421f61410d565b5b81356142308482602086016141cb565b91505092915050565b5f5f6040838503121561424f5761424e613d87565b5b5f61425c85828601613f18565b925050602083013567ffffffffffffffff81111561427d5761427c613d8b565b5b6142898582860161420c565b9150509250929050565b5f602082840312156142a8576142a7613d87565b5b5f6142b584828501613f18565b91505092915050565b6142c781613ef1565b82525050565b5f6020820190506142e05f8301846142be565b92915050565b5f63ffffffff82169050919050565b6142fe816142e6565b82525050565b5f6020820190506143175f8301846142f5565b92915050565b5f7fff0000000000000000000000000000000000000000000000000000000000000082169050919050565b6143518161431d565b82525050565b5f81519050919050565b5f82825260208201905092915050565b5f819050602082019050919050565b61438981613f2c565b82525050565b5f61439a8383614380565b60208301905092915050565b5f602082019050919050565b5f6143bc82614357565b6143c68185614361565b93506143d183614371565b805f5b838110156144015781516143e8888261438f565b97506143f3836143a6565b9250506001810190506143d4565b5085935050505092915050565b5f60e0820190506144215f83018a614348565b81810360208301526144338189613e7a565b905081810360408301526144478188613e7a565b90506144566060830187613f9d565b61446360808301866142be565b61447060a0830185614073565b81810360c083015261448281846143b2565b905098975050505050505050565b5f602082840312156144a5576144a4613d87565b5b5f6144b284828501613f4b565b91505092915050565b5f65ffffffffffff82169050919050565b6144d5816144bb565b82525050565b5f6020820190506144ee5f8301846144cc565b92915050565b5f5f5f6060848603121561450b5761450a613d87565b5b5f61451886828701613f18565b935050602061452986828701613f18565b925050604061453a86828701613f18565b9150509250925092565b61454d816140d9565b8114614557575f5ffd5b50565b5f8135905061456881614544565b92915050565b5f5f5f5f5f5f60c0878903121561458857614587613d87565b5b5f61459589828a01613f18565b96505060206145a689828a01613f4b565b95505060406145b789828a01613f4b565b94505060606145c889828a0161455a565b93505060806145d989828a01614034565b92505060a06145ea89828a01614034565b9150509295509295509295565b5f5f5f5f5f5f5f60e0888a03121561461257614611613d87565b5b5f61461f8a828b01613f18565b97505060206146308a828b01613f18565b96505060406146418a828b01613f4b565b95505060606146528a828b01613f4b565b94505060806146638a828b0161455a565b93505060a06146748a828b01614034565b92505060c06146858a828b01614034565b91505092959891949750929550565b5f5f604083850312156146aa576146a9613d87565b5b5f6146b785828601613f18565b92505060206146c885828601613f18565b9150509250929050565b6146db816142e6565b81146146e5575f5ffd5b50565b5f813590506146f6816146d2565b92915050565b5f5f6040838503121561471257614711613d87565b5b5f61471f85828601613f18565b9250506020614730858286016146e8565b9150509250929050565b614743816144bb565b82525050565b5f79ffffffffffffffffffffffffffffffffffffffffffffffffffff82169050919050565b61477781614749565b82525050565b604082015f8201516147915f85018261473a565b5060208201516147a4602085018261476e565b50505050565b5f6040820190506147bd5f83018461477d565b92915050565b7f4e487b71000000000000000000000000000000000000000000000000000000005f52602260045260245ffd5b5f600282049050600182168061480757607f821691505b60208210810361481a576148196147c3565b5b50919050565b7f4549503731323a20556e696e697469616c697a656400000000000000000000005f82015250565b5f614854601583613e4c565b915061485f82614820565b602082019050919050565b5f6020820190508181035f83015261488181614848565b9050919050565b5f819050919050565b5f67ffffffffffffffff82169050919050565b5f819050919050565b5f6148c76148c26148bd84614888565b6148a4565b614891565b9050919050565b6148d7816148ad565b82525050565b5f6020820190506148f05f8301846148ce565b92915050565b5f6080820190506149095f830187614073565b61491660208301866142be565b6149236040830185613f9d565b6149306060830184613f9d565b95945050505050565b5f60c08201905061494c5f830189614073565b61495960208301886142be565b61496660408301876142be565b6149736060830186613f9d565b6149806080830185613f9d565b61498d60a0830184613f9d565b979650505050505050565b5f6040820190506149ab5f8301856142be565b6149b860208301846142be565b9392505050565b5f6040820190506149d25f830185613f9d565b6149df60208301846144cc565b9392505050565b7f4e487b71000000000000000000000000000000000000000000000000000000005f52601160045260245ffd5b5f614a1d82613f2c565b9150614a2883613f2c565b9250828203905081811115614a4057614a3f6149e6565b5b92915050565b5f614a5082613f2c565b9150614a5b83613f2c565b9250828201905080821115614a7357614a726149e6565b5b92915050565b5f81519050614a878161401e565b92915050565b5f60208284031215614aa257614aa1613d87565b5b5f614aaf84828501614a79565b91505092915050565b5f604082019050614acb5f8301856142be565b614ad86020830184613f9d565b9392505050565b5f604082019050614af25f8301856142be565b614aff6020830184614073565b9392505050565b5f60a082019050614b195f830188614073565b614b266020830187614073565b614b336040830186614073565b614b406060830185613f9d565b614b4d60808301846142be565b9695505050505050565b5f819050919050565b5f614b7a614b75614b7084614b57565b6148a4565b6140d9565b9050919050565b614b8a81614b60565b82525050565b5f604082019050614ba35f830185614b81565b614bb06020830184613f9d565b9392505050565b7f4e487b71000000000000000000000000000000000000000000000000000000005f52601260045260245ffd5b5f604082019050614bf75f830185613f9d565b614c046020830184613f9d565b9392505050565b5f819050919050565b5f614c2e614c29614c2484614c0b565b6148a4565b6140d9565b9050919050565b614c3e81614c14565b82525050565b5f604082019050614c575f830185614c35565b614c646020830184613f9d565b9392505050565b5f819050815f5260205f209050919050565b5f6020601f8301049050919050565b5f82821b905092915050565b5f60088302614cc77fffffffffffffffffffffffffffffffffffffffffffffffffffffffffffffffff82614c8c565b614cd18683614c8c565b95508019841693508086168417925050509392505050565b5f614d03614cfe614cf984613f2c565b6148a4565b613f2c565b9050919050565b5f819050919050565b614d1c83614ce9565b614d30614d2882614d0a565b848454614c98565b825550505050565b5f5f905090565b614d47614d38565b614d52818484614d13565b505050565b5b81811015614d7557614d6a5f82614d3f565b600181019050614d58565b5050565b601f821115614dba57614d8b81614c6b565b614d9484614c7d565b81016020851015614da3578190505b614db7614daf85614c7d565b830182614d57565b50505b505050565b5f82821c905092915050565b5f614dda5f1984600802614dbf565b1980831691505092915050565b5f614df28383614dcb565b9150826002028217905092915050565b614e0b82613e42565b67ffffffffffffffff811115614e2457614e23614115565b5b614e2e82546147f0565b614e39828285614d79565b5f60209050601f831160018114614e6a575f8415614e58578287015190505b614e628582614de7565b865550614ec9565b601f198416614e7886614c6b565b5f5b82811015614e9f57848901518255600182019150602085019450602081019050614e7a565b86831015614ebc5784890151614eb8601f891682614dcb565b8355505b6001600288020188555050505b505050505050565b5f608082019050614ee45f830187614073565b614ef160208301866140e5565b614efe6040830185614073565b614f0b6060830184614073565b95945050505050565b7f4e487b71000000000000000000000000000000000000000000000000000000005f52602160045260245ffd5b7f4e487b71000000000000000000000000000000000000000000000000000000005f52603260045260245ffd5b5f614f7882613f2c565b9150614f8383613f2c565b925082614f9357614f92614bb7565b5b828204905092915050565b5f81519050919050565b5f81905092915050565b5f614fbc82614f9e565b614fc68185614fa8565b9350614fd6818560208601613e5c565b80840191505092915050565b5f614fed8284614fb2565b915081905092915050565b5f61500282614749565b915061500d83614749565b9250828203905079ffffffffffffffffffffffffffffffffffffffffffffffffffff81111561503f5761503e6149e6565b5b92915050565b5f819050919050565b5f61506861506361505e84615045565b6148a4565b6140d9565b9050919050565b6150788161504e565b82525050565b5f6040820190506150915f83018561506f565b61509e6020830184613f9d565b9392505050565b5f6150af82614749565b91506150ba83614749565b9250828201905079ffffffffffffffffffffffffffffffffffffffffffffffffffff8111156150ec576150eb6149e6565b5b92915050565b5f6060820190506151055f8301866142be565b6151126020830185613f9d565b61511f6040830184613f9d565b94935050505056fea2646970667358221220c632ccbcb761ff40ea27cdb6947601fb4c49de721bdd827194123ae01d5b83d164736f6c634300081c0033","linkReferences":{}},"methodIdentifiers":{"CLOCK_MODE()":"4bf5d7e9","DEFAULT_ADMIN_ROLE()":"a217fddf","DOMAIN_SEPARATOR()":"3644e515","MINTER_ROLE()":"d5391393","UPGRADER_ROLE()":"f72c0d8b","UPGRADE_INTERFACE_VERSION()":"ad3cb1cc","allowance(address,address)":"dd62ed3e","approve(address,uint256)":"095ea7b3","balanceOf(address)":"70a08231","checkpoints(address,uint32)":"f1127ed8","clock()":"91ddadf4","decimals()":"313ce567","delegate(address)":"5c19a95c","delegateBySig(address,uint256,uint256,uint8,bytes32,bytes32)":"c3cda520","delegates(address)":"587cde1e","eip712Domain()":"84b0196e","getPastTotalSupply(uint256)":"8e539e8c","getPastVotes(address,uint256)":"3a46b1a8","getRoleAdmin(bytes32)":"248a9ca3","getVotes(address)":"9ab24eb0","grantRole(bytes32,address)":"2f2ff15d","hasRole(bytes32,address)":"91d14854","initialize(address,address,address)":"c0c53b8b","mint(address,uint256)":"40c10f19","name()":"06fdde03","nonces(address)":"7ecebe00","numCheckpoints(address)":"6fcfff45","permit(address,address,uint256,uint256,uint8,bytes32,bytes32)":"d505accf","proxiableUUID()":"52d1902d","renounceRole(bytes32,address)":"36568abe","revokeRole(bytes32,address)":"d547741f","supportsInterface(bytes4)":"01ffc9a7","symbol()":"95d89b41","totalSupply()":"18160ddd","transfer(address,uint256)":"a9059cbb","transferFrom(address,address,uint256)":"23b872dd","upgradeToAndCall(address,bytes)":"4f1ef286"},"id":1}