{"abi":[{"type":"constructor","inputs":[],"stateMutability":"nonpayable"},{"type":"function","name":"CLOCK_MODE","inputs":[],"outputs":[{"name":"","type":"string","internalType":"string"}],"stateMutability":"view"},{"type":"function","name":"DEFAULT_ADMIN_ROLE","inputs":[],"outputs":[{"name":"","type":"bytes32","internalType":"bytes32"}],"stateMutability":"view"},{"type":"function","name":"DOMAIN_SEPARATOR","inputs":[],"outputs":[{"name":"","type":"bytes32","internalType":"bytes32"}],"stateMutability":"view"},{"type":"function","name":"MINTER_ROLE","inputs":[],"outputs":[{"name":"","type":"bytes32","internalType":"bytes32"}],"stateMutability":"view"},{"type":"function","name":"UPGRADER_ROLE","inputs":[],"outputs":[{"name":"","type":"bytes32","internalType":"bytes32"}],"stateMutability":"view"},{"type":"function","name":"UPGRADE_INTERFACE_VERSION","inputs":[],"outputs":[{"name":"","type":"string","internalType":"string"}],"stateMutability":"view"},{"type":"function","name":"allowance","inputs":[{"name":"owner","type":"address","internalType":"address"},{"name":"spender","type":"address","internalType":"address"}],"outputs":[{"name":"","type":"uint256","internalType":"uint256"}],"stateMutability":"view"},{"type":"function","name":"approve","inputs":[{"name":"spender","type":"address","internalType":"address"},{"name":"amount","type":"uint256","internalType":"uint256"}],"outputs":[{"name":"","type":"bool","internalType":"bool"}],"stateMutability":"nonpayable"},{"type":"function","name":"balanceOf","inputs":[{"name":"account","type":"address","internalType":"address"}],"outputs":[{"name":"","type":"uint256","internalType":"uint256"}],"stateMutability":"view"},{"type":"function","name":"checkpoints","inputs":[{"name":"account","type":"address","internalType":"address"},{"name":"pos","type":"uint32","internalType":"uint32"}],"outputs":[{"name":"","type":"tuple","internalType":"struct Checkpoints.Checkpoint208","components":[{"name":"_key","type":"uint48","internalType":"uint48"},{"name":"_value","type":"uint208","internalType":"uint208"}]}],"stateMutability":"view"},{"type":"function","name":"clock","inputs":[],"outputs":[{"name":"","type":"uint48","internalType":"uint48"}],"stateMutability":"view"},{"type":"function","name":"decimals","inputs":[],"outputs":[{"name":"","type":"uint8","internalType":"uint8"}],"stateMutability":"view"},{"type":"function","name":"delegate","inputs":[{"name":"delegatee","type":"address","internalType":"address"}],"outputs":[],"stateMutability":"nonpayable"},{"type":"function","name":"delegateBySig","inputs":[{"name":"delegatee","type":"address","internalType":"address"},{"name":"nonce","type":"uint256","internalType":"uint256"},{"name":"expiry","type":"uint256","internalType":"uint256"},{"name":"v","type":"uint8","internalType":"uint8"},{"name":"r","type":"bytes32","internalType":"bytes32"},{"name":"s","type":"bytes32","internalType":"bytes32"}],"outputs":[],"stateMutability":"nonpayable"},{"type":"function","name":"delegates","inputs":[{"name":"account","type":"address","internalType":"address"}],"outputs":[{"name":"","type":"address","internalType":"address"}],"stateMutability":"view"},{"type":"function","name":"eip712Domain","inputs":[],"outputs":[{"name":"fields","type":"bytes1","internalType":"bytes1"},{"name":"name","type":"string","internalType":"string"},{"name":"version","type":"string","internalType":"string"},{"name":"chainId","type":"uint256","internalType":"uint256"},{"name":"verifyingContract","type":"address","internalType":"address"},{"name":"salt","type":"bytes32","internalType":"bytes32"},{"name":"extensions","type":"uint256[]","internalType":"uint256[]"}],"stateMutability":"view"},{"type":"function","name":"getPastTotalSupply","inputs":[{"name":"timepoint","type":"uint256","internalType":"uint256"}],"outputs":[{"name":"","type":"uint256","internalType":"uint256"}],"stateMutability":"view"},{"type":"function","name":"getPastVotes","inputs":[{"name":"account","type":"address","internalType":"address"},{"name":"timepoint","type":"uint256","internalType":"uint256"}],"outputs":[{"name":"","type":"uint256","internalType":"uint256"}],"stateMutability":"view"},{"type":"function","name":"getRoleAdmin","inputs":[{"name":"role","type":"bytes32","internalType":"bytes32"}],"outputs":[{"name":"","type":"bytes32","internalType":"bytes32"}],"stateMutability":"view"},{"type":"function","name":"getVotes","inputs":[{"name":"account","type":"address","internalType":"address"}],"outputs":[{"name":"","type":"uint256","internalType":"uint256"}],"stateMutability":"view"},{"type":"function","name":"grantRole","inputs":[{"name":"role","type":"bytes32","internalType":"bytes32"},{"name":"account","type":"address","internalType":"address"}],"outputs":[],"stateMutability":"nonpayable"},{"type":"function","name":"hasRole","inputs":[{"name":"role","type":"bytes32","internalType":"bytes32"},{"name":"account","type":"address","internalType":"address"}],"outputs":[{"name":"","type":"bool","internalType":"bool"}],"stateMutability":"view"},{"type":"function","name":"initialize","inputs":[{"name":"defaultAdmin","type":"address","internalType":"address"},{"name":"minter","type":"address","internalType":"address"},{"name":"upgrader","type":"address","internalType":"address"}],"outputs":[],"stateMutability":"nonpayable"},{"type":"function","name":"mint","inputs":[{"name":"to","type":"address","internalType":"address"},{"name":"amount","type":"uint256","internalType":"uint256"}],"outputs":[],"stateMutability":"nonpayable"},{"type":"function","name":"name","inputs":[],"outputs":[{"name":"","type":"string","internalType":"string"}],"stateMutability":"view"},{"type":"function","name":"nonces","inputs":[{"name":"owner","type":"address","internalType":"address"}],"outputs":[{"name":"","type":"uint256","internalType":"uint256"}],"stateMutability":"view"},{"type":"function","name":"numCheckpoints","inputs":[{"name":"account","type":"address","internalType":"address"}],"outputs":[{"name":"","type":"uint32","internalType":"uint32"}],"stateMutability":"view"},{"type":"function","name":"permit","inputs":[{"name":"owner","type":"address","internalType":"address"},{"name":"spender","type":"address","internalType":"address"},{"name":"value","type":"uint256","internalType":"uint256"},{"name":"deadline","type":"uint256","internalType":"uint256"},{"name":"v","type":"uint8","internalType":"uint8"},{"name":"r","type":"bytes32","internalType":"bytes32"},{"name":"s","type":"bytes32","internalType":"bytes32"}],"outputs":[],"stateMutability":"nonpayable"},{"type":"function","name":"proxiableUUID","inputs":[],"outputs":[{"name":"","type":"bytes32","internalType":"bytes32"}],"stateMutability":"view"},{"type":"function","name":"renounceRole","inputs":[{"name":"role","type":"bytes32","internalType":"bytes32"},{"name":"callerConfirmation","type":"address","internalType":"address"}],"outputs":[],"stateMutability":"nonpayable"},{"type":"function","name":"revokeRole","inputs":[{"name":"role","type":"bytes32","internalType":"bytes32"},{"name":"account","type":"address","internalType":"address"}],"outputs":[],"stateMutability":"nonpayable"},{"type":"function","name":"supportsInterface","inputs":[{"name":"interfaceId","type":"bytes4","internalType":"bytes4"}],"outputs":[{"name":"","type":"bool","internalType":"bool"}],"stateMutability":"view"},{"type":"function","name":"symbol","inputs":[],"outputs":[{"name":"","type":"string","internalType":"string"}],"stateMutability":"view"},{"type":"function","name":"totalSupply","inputs":[],"outputs":[{"name":"","type":"uint256","internalType":"uint256"}],"stateMutability":"view"},{"type":"function","name":"transfer","inputs":[{"name":"to","type":"address","internalType":"address"},{"name":"amount","type":"uint256","internalType":"uint256"}],"outputs":[{"name":"","type":"bool","internalType":"bool"}],"stateMutability":"nonpayable"},{"type":"function","name":"transferFrom","inputs":[{"name":"from","type":"address","internalType":"address"},{"name":"to","type":"address","internalType":"address"},{"name":"amount","type":"uint256","internalType":"uint256"}],"outputs":[{"name":"","type":"bool","internalType":"bool"}],"stateMutability":"nonpayable"},{"type":"function","name":"upgradeToAndCall","inputs":[{"name":"newImplementation","type":"address","internalType":"address"},{"name":"data","type":"bytes","internalType":"bytes"}],"outputs":[],"stateMutability":"payable"},{"type":"event","name":"Approval","inputs":[{"name":"owner","type":"address","indexed":true,"internalType":"address"},{"name":"spender","type":"address","indexed":true,"internalType":"address"},{"name":"value","type":"uint256","indexed":false,"internalType":"uint256"}],"anonymous":false},{"type":"event","name":"DelegateChanged","inputs":[{"name":"delegator","type":"address","indexed":true,"internalType":"address"},{"name":"fromDelegate","type":"address","indexed":true,"internalType":"address"},{"name":"toDelegate","type":"address","indexed":true,"internalType":"address"}],"anonymous":false},{"type":"event","name":"DelegateVotesChanged","inputs":[{"name":"delegate","type":"address","indexed":true,"internalType":"address"},{"name":"previousVotes","type":"uint256","indexed":false,"internalType":"uint256"},{"name":"newVotes","type":"uint256","indexed":false,"internalType":"uint256"}],"anonymous":false},{"type":"event","name":"EIP712DomainChanged","inputs":[],"anonymous":false},{"type":"event","name":"Initialized","inputs":[{"name":"version","type":"uint64","indexed":false,"internalType":"uint64"}],"anonymous":false},{"type":"event","name":"RoleAdminChanged","inputs":[{"name":"role","type":"bytes32","indexed":true,"internalType":"bytes32"},{"name":"previousAdminRole","type":"bytes32","indexed":true,"internalType":"bytes32"},{"name":"newAdminRole","type":"bytes32","indexed":true,"internalType":"bytes32"}],"anonymous":false},{"type":"event","name":"RoleGranted","inputs":[{"name":"role","type":"bytes32","indexed":true,"internalType":"bytes32"},{"name":"account","type":"address","indexed":true,"internalType":"address"},{"name":"sender","type":"address","indexed":true,"internalType":"address"}],"anonymous":false},{"type":"event","name":"RoleRevoked","inputs":[{"name":"role","type":"bytes32","indexed":true,"internalType":"bytes32"},{"name":"account","type":"address","indexed":true,"internalType":"address"},{"name":"sender","type":"address","indexed":true,"internalType":"address"}],"anonymous":false},{"type":"event","name":"Transfer","inputs":[{"name":"from","type":"address","indexed":true,"internalType":"address"},{"name":"to","type":"address","indexed":true,"internalType":"address"},{"name":"value","type":"uint256","indexed":false,"internalType":"uint256"}],"anonymous":false},{"type":"event","name":"Upgraded","inputs":[{"name":"implementation","type":"address","indexed":true,"internalType":"address"}],"anonymous":false},{"type":"error","name":"AccessControlBadConfirmation","inputs":[]},{"type":"error","name":"AccessControlUnauthorizedAccount","inputs":[{"name":"account","type":"address","internalType":"address"},{"name":"neededRole","type":"bytes32","internalType":"bytes32"}]},{"type":"error","name":"AddressEmptyCode","inputs":[{"name":"target","type":"address","internalType":"address"}]},{"type":"error","name":"CheckpointUnorderedInsertion","inputs":[]},{"type":"error","name":"ECDSAInvalidSignature","inputs":[]},{"type":"error","name":"ECDSAInvalidSignatureLength","inputs":[{"name":"length","type":"uint256","internalType":"uint256"}]},{"type":"error","name":"ECDSAInvalidSignatureS","inputs":[{"name":"s","type":"bytes32","internalType":"bytes32"}]},{"type":"error","name":"ERC1967InvalidImplementation","inputs":[{"name":"implementation","type":"address","internalType":"address"}]},{"type":"error","name":"ERC1967NonPayable","inputs":[]},{"type":"error","name":"ERC20ExceededSafeSupply","inputs":[{"name":"increasedSupply","type":"uint256","internalType":"uint256"},{"name":"cap","type":"uint256","internalType":"uint256"}]},{"type":"error","name":"ERC20InsufficientAllowance","inputs":[{"name":"spender","type":"address","internalType":"address"},{"name":"allowance","type":"uint256","internalType":"uint256"},{"name":"needed","type":"uint256","internalType":"uint256"}]},{"type":"error","name":"ERC20InsufficientBalance","inputs":[{"name":"sender","type":"address","internalType":"address"},{"name":"balance","type":"uint256","internalType":"uint256"},{"name":"needed","type":"uint256","internalType":"uint256"}]},{"type":"error","name":"ERC20InvalidApprover","inputs":[{"name":"approver","type":"address","internalType":"address"}]},{"type":"error","name":"ERC20InvalidReceiver","inputs":[{"name":"receiver","type":"address","internalType":"address"}]},{"type":"error","name":"ERC20InvalidSender","inputs":[{"name":"sender","type":"address","internalType":"address"}]},{"type":"error","name":"ERC20InvalidSpender","inputs":[{"name":"spender","type":"address","internalType":"address"}]},{"type":"error","name":"ERC2612ExpiredSignature","inputs":[{"name":"deadline","type":"uint256","internalType":"uint256"}]},{"type":"error","name":"ERC2612InvalidSigner","inputs":[{"name":"signer","type":"address","internalType":"address"},{"name":"owner","type":"address","internalType":"address"}]},{"type":"error","name":"ERC5805FutureLookup","inputs":[{"name":"timepoint","type":"uint256","internalType":"uint256"},{"name":"clock","type":"uint48","internalType":"uint48"}]},{"type":"error","name":"ERC6372InconsistentClock","inputs":[]},{"type":"error","name":"FailedCall","inputs":[]},{"type":"error","name":"InvalidAccountNonce","inputs":[{"name":"account","type":"address","internalType":"address"},{"name":"currentNonce","type":"uint256","internalType":"uint256"}]},{"type":"error","name":"InvalidInitialization","inputs":[]},{"type":"error","name":"NotInitializing","inputs":[]},{"type":"error","name":"SafeCastOverflowedUintDowncast","inputs":[{"name":"bits","type":"uint8","internalType":"uint8"},{"name":"value","type":"uint256","internalType":"uint256"}]},{"type":"error","name":"UUPSUnauthorizedCallContext","inputs":[]},{"type":"error","name":"UUPSUnsupportedProxiableUUID","inputs":[{"name":"slot","type":"bytes32","internalType":"bytes32"}]},{"type":"error","name":"VMahout__TransferNotAllowed","inputs":[]},{"type":"error","name":"VotesExpiredSignature","inputs":[{"name":"expiry","type":"uint256","internalType":"uint256"}]}],"bytecode":{"object":"0x60a080604052346100c257306080525f5160206131a25f395f51905f525460ff8160401c166100b3576002600160401b03196001600160401b03821601610060575b6040516130db90816100c78239608051818181610932015261170c0152f35b6001600160401b0319166001600160401b039081175f5160206131a25f395f51905f525581527fc7f505b2f371ae2175ee4913f4499e1f2633a7b5936321eed1cdaeb6115181d290602090a15f80610041565b63f92ee8a960e01b5f5260045ffd5b5f80fdfe60806040526004361015610011575f80fd5b5f3560e01c806301ffc9a71461025f57806306fdde031461025a578063095ea7b3146101dd57806318160ddd1461025557806323b872dd14610250578063248a9ca31461024b5780632f2ff15d14610246578063313ce567146102415780633644e5151461023c57806336568abe146102375780633a46b1a81461023257806340c10f191461022d5780634bf5d7e9146102285780634f1ef2861461022357806352d1902d1461021e578063587cde1e146102195780635c19a95c146102145780636fcfff451461020f57806370a082311461020a5780637ecebe001461020557806384b0196e146102005780638e539e8c146101fb57806391d14854146101f657806391ddadf4146101f157806395d89b41146101ec5780639ab24eb0146101e7578063a217fddf146101e2578063a9059cbb146101dd578063ad3cb1cc146101d8578063c0c53b8b146101d3578063c3cda520146101ce578063d505accf146101c9578063d5391393146101c4578063d547741f146101bf578063dd62ed3e146101ba578063f1127ed8146101b55763f72c0d8b146101b0575f80fd5b6114dc565b611438565b6113b7565b61136d565b611333565b6111f0565b6110c2565b610f27565b610ee0565b610425565b610ec6565b610e8f565b610dd2565b610da7565b610d4c565b610c5d565b610b8d565b610ab3565b610a5c565b610a07565b6109e5565b610986565b610920565b6108a9565b610795565b61067b565b6105a2565b61055e565b610544565b610529565b6104d8565b610499565b610477565b61044e565b6102f1565b346102b55760203660031901126102b55760043563ffffffff60e01b81168091036102b557602090637965db0b60e01b81149081156102a4575b506040519015158152f35b6301ffc9a760e01b1490505f610299565b5f80fd5b805180835260209291819084018484015e5f828201840152601f01601f1916010190565b9060206102ee9281815201906102b9565b90565b346102b5575f3660031901126102b5576040515f5f516020612fbb5f395f51905f525461031d81611516565b80845290600181169081156103bf5750600114610355575b610351836103458185038261085a565b604051918291826102dd565b0390f35b5f516020612fbb5f395f51905f525f9081527f2ae08a8e29253f69ac5d979a101956ab8f8d9d7ded63fa7a83b16fc47648eab0939250905b8082106103a557509091508101602001610345610335565b91926001816020925483858801015201910190929161038d565b60ff191660208086019190915291151560051b840190910191506103459050610335565b600435906001600160a01b03821682036102b557565b602435906001600160a01b03821682036102b557565b604435906001600160a01b03821682036102b557565b346102b55760403660031901126102b55761043e6103e3565b506388774a4d60e01b5f5260045ffd5b346102b5575f3660031901126102b55760205f51602061301b5f395f51905f5254604051908152f35b346102b55760603660031901126102b5576104906103e3565b5061043e6103f9565b346102b55760203660031901126102b55760206104d06004355f525f51602061309b5f395f51905f52602052600160405f20015490565b604051908152f35b346102b55760403660031901126102b5576105276004356104f76103f9565b9061052261051d825f525f51602061309b5f395f51905f52602052600160405f20015490565b611afb565b611d5f565b005b346102b5575f3660031901126102b557602060405160128152f35b346102b5575f3660031901126102b55760206104d0612283565b346102b55760403660031901126102b55760043561057a6103f9565b336001600160a01b038216036105935761052791611df4565b63334bd91960e11b5f5260045ffd5b346102b55760403660031901126102b5576105bb6103e3565b6105d06105ca602435926116c8565b91611e94565b8154905f829160058411610623575b6105ea935084612495565b908161060857505060205f5b6040516001600160d01b039091168152f35b610613602092611ee1565b905f52815f20015460301c6105f6565b919261062e81612337565b8103908111610676576105ea93855f5265ffffffffffff8260205f2001541665ffffffffffff8516105f146106645750916105df565b92915061067090611eef565b906105df565b611ecd565b346102b55760403660031901126102b5576106946103e3565b60243561069f611a1d565b6001600160a01b0382168015610782576106db6106ca835f51602061301b5f395f51905f5254611efd565b5f51602061301b5f395f51905f5255565b6001600160a01b0383165f9081527f52c63247e1f47db19d5ce0460030c497f067ca4cebf71ba98eeadabe20bace0060209081526040808320805486019055518481527fddf252ad1be2c89b69c2b068fc378daa952ba7f163c4a11628f55a4df523b3ef9190a35f51602061301b5f395f51905f5254916001600160d01b0380841161076b576105278383612cd6565b630e58ae9360e11b5f52600484905260245260445ffd5b63ec442f0560e01b5f525f60045260245ffd5b346102b5575f3660031901126102b5576107ae436122ea565b65ffffffffffff806107bf436122ea565b16911603610816576103516040516107d860408261085a565b601d81527f6d6f64653d626c6f636b6e756d6265722666726f6d3d64656661756c7400000060208201526040519182916020835260208301906102b9565b6301bfc1c560e61b5f5260045ffd5b634e487b7160e01b5f52604160045260245ffd5b6040810190811067ffffffffffffffff82111761085557604052565b610825565b90601f8019910116810190811067ffffffffffffffff82111761085557604052565b6040519061088b60408361085a565b565b67ffffffffffffffff811161085557601f01601f191660200190565b60403660031901126102b5576108bd6103e3565b6024359067ffffffffffffffff82116102b557366023830112156102b5578160040135906108ea8261088d565b916108f8604051938461085a565b80835236602482860101116102b5576020815f92602461052797018387013784010152611700565b346102b5575f3660031901126102b5577f00000000000000000000000000000000000000000000000000000000000000006001600160a01b031630036109775760206040515f51602061305b5f395f51905f528152f35b63703e46dd60e11b5f5260045ffd5b346102b55760203660031901126102b5576001600160a01b036109a76103e3565b165f527fe8b26c30fad74198956032a3533d903385d56dd795af560196f9c78d4af40d00602052602060018060a01b0360405f205416604051908152f35b346102b55760203660031901126102b557610527610a016103e3565b33611f19565b346102b55760203660031901126102b557610a28610a236103e3565b6116c8565b5463ffffffff8111610a455760209063ffffffff60405191168152f35b6306dfcc6560e41b5f52602060045260245260445ffd5b346102b55760203660031901126102b55760206104d0610a7a6103e3565b6001600160a01b03165f9081527f52c63247e1f47db19d5ce0460030c497f067ca4cebf71ba98eeadabe20bace00602052604090205490565b346102b55760203660031901126102b5576001600160a01b03610ad46103e3565b165f527f5ab42ced628888259c08ac98db1eb0cf702fc1501344311d8b100cd1bfe4bb00602052602060405f2054604051908152f35b929391610b2c610b3a92600f60f81b865260e0602087015260e08601906102b9565b9084820360408601526102b9565b92606083015260018060a01b031660808201525f60a082015260c0818303910152602080835192838152019201905f5b818110610b775750505090565b8251845260209384019390920191600101610b6a565b346102b5575f3660031901126102b5577fa16a46d94261c7517cc8ff89f61c0ce93598e3c849801011dee649a6a557d100541580610c34575b15610bf757610bd361154e565b610bdb61161b565b90610351610be7611815565b6040519384933091469186610b0a565b60405162461bcd60e51b81526020600482015260156024820152741152540dcc4c8e88155b9a5b9a5d1a585b1a5e9959605a1b6044820152606490fd5b507fa16a46d94261c7517cc8ff89f61c0ce93598e3c849801011dee649a6a557d1015415610bc6565b346102b55760203660031901126102b557610c79600435611e94565b5f51602061307b5f395f51905f5254905f829160058411610cec575b610cad93505f51602061307b5f395f51905f52612495565b80610cbe57506040515f8152602090f35b610ce7610ccc602092611ee1565b5f51602061307b5f395f51905f525f52825f20015460301c90565b6105f6565b9192610cf781612337565b810390811161067657610cad935f51602061307b5f395f51905f525f5265ffffffffffff8260205f2001541665ffffffffffff8516105f14610d3a575091610c95565b929150610d4690611eef565b90610c95565b346102b55760403660031901126102b557602060ff610d9b600435610d6f6103f9565b905f525f51602061309b5f395f51905f52845260405f209060018060a01b03165f5260205260405f2090565b54166040519015158152f35b346102b5575f3660031901126102b5576020610dc2436122ea565b65ffffffffffff60405191168152f35b346102b5575f3660031901126102b5576040515f5f516020612ffb5f395f51905f5254610dfe81611516565b80845290600181169081156103bf5750600114610e2557610351836103458185038261085a565b5f516020612ffb5f395f51905f525f9081527f46a2803e59a4de4e7a4c574b1243f25977ac4c77d5a1a4a609b5394cebb4a2aa939250905b808210610e7557509091508101602001610345610335565b919260018160209254838588010152019101909291610e5d565b346102b55760203660031901126102b55760206001600160d01b03610ebd610eb8610a236103e3565b611fd8565b16604051908152f35b346102b5575f3660031901126102b55760206040515f8152f35b346102b5575f3660031901126102b557610351604051610f0160408261085a565b60058152640352e302e360dc1b60208201526040519182916020835260208301906102b9565b346102b55760603660031901126102b557610f406103e3565b610f486103f9565b90610f5161040f565b5f5160206130bb5f395f51905f52549267ffffffffffffffff610f8460ff604087901c16159567ffffffffffffffff1690565b168015908161109a575b6001149081611090575b159081611087575b5061107857610fe49284610fdb600167ffffffffffffffff195f5160206130bb5f395f51905f525416175f5160206130bb5f395f51905f5255565b61104357611855565b610fea57005b61101460ff60401b195f5160206130bb5f395f51905f5254165f5160206130bb5f395f51905f5255565b604051600181527fc7f505b2f371ae2175ee4913f4499e1f2633a7b5936321eed1cdaeb6115181d290602090a1005b611073600160401b60ff60401b195f5160206130bb5f395f51905f525416175f5160206130bb5f395f51905f5255565b611855565b63f92ee8a960e01b5f5260045ffd5b9050155f610fa0565b303b159150610f98565b859150610f8e565b6064359060ff821682036102b557565b6084359060ff821682036102b557565b346102b55760c03660031901126102b5576110db6103e3565b602435906044356110ea6110a2565b6084359060a435928042116111de579161116f93916111616111669460405160208101917fe48329057bfd03d55e49b547132e39cffd9c1820ad7b9d4c5307691425d15adf835260018060a01b038a1660408301528a606083015260808201526080815261115960a08261085a565b519020612197565b6129f6565b90929192612aa1565b6001600160a01b0381165f9081527f5ab42ced628888259c08ac98db1eb0cf702fc1501344311d8b100cd1bfe4bb00602052604090208054600181019091558093036111bf576105279250611f19565b90506301d4b62360e61b5f5260018060a01b031660045260245260445ffd5b632341d78760e11b5f5260045260245ffd5b346102b55760e03660031901126102b5576112096103e3565b6112116103f9565b60443590606435926112216110b2565b60a43560c43590864211611320576001600160a01b0384165f9081527f5ab42ced628888259c08ac98db1eb0cf702fc1501344311d8b100cd1bfe4bb00602052604090208054600181019091556112e593906112e0909860405160208101917f6e71edae12b1b97f4d1f60370fef10105fa2faae0126114a169c64845d6126c9835260018060a01b0389169b8c604084015260018060a01b038b1660608401528b608084015260a083015260c082015260c0815261115960e08261085a565b6121bd565b936001600160a01b038516036112ff5761052793506121cc565b6325c0072360e11b5f526001600160a01b038085166004521660245260445ffd5b8663313c898160e11b5f5260045260245ffd5b346102b5575f3660031901126102b55760206040517f9f2df0fed2c77648de5860a4cc508cd0818c85b8b8a1ab4ceeef8d981c8956a68152f35b346102b55760403660031901126102b55761052760043561138c6103f9565b906113b261051d825f525f51602061309b5f395f51905f52602052600160405f20015490565b611df4565b346102b55760403660031901126102b557602061142f6113d56103e3565b61141a6113e06103f9565b6001600160a01b039092165f9081527f52c63247e1f47db19d5ce0460030c497f067ca4cebf71ba98eeadabe20bace016020526040902090565b9060018060a01b03165f5260205260405f2090565b54604051908152f35b346102b55760403660031901126102b5576114516103e3565b6024359063ffffffff821682036102b5576103519161148461149292611475611a05565b5061147e611a05565b506116c8565b61148c611a05565b50612b1d565b50604051906114a082610839565b5465ffffffffffff811680835260309190911c60209283019081526040805192835290516001600160d01b031692820192909252918291820190565b346102b5575f3660031901126102b55760206040517f189ab7a9244df0848122154315af71fe140f3db0fe014031783b0946b8c9d2e38152f35b90600182811c92168015611544575b602083101461153057565b634e487b7160e01b5f52602260045260245ffd5b91607f1691611525565b604051905f825f516020612fdb5f395f51905f52549161156d83611516565b80835292600181169081156115fc5750600114611591575b61088b9250038361085a565b505f516020612fdb5f395f51905f525f90815290917f42ad5d3e1f2e6e70edcf6d991b8a3023d3fca8047a131592f9edb9fd9b89d57d5b8183106115e057505090602061088b92820101611585565b60209193508060019154838589010152019101909184926115c8565b6020925061088b94915060ff191682840152151560051b820101611585565b604051905f825f51602061303b5f395f51905f52549161163a83611516565b80835292600181169081156115fc575060011461165d5761088b9250038361085a565b505f51602061303b5f395f51905f525f90815290917f5f9ce34815f8e11431c7bb75a8e6886a91478f7ffc1dbb0a98dc240fddd76b755b8183106116ac57505090602061088b92820101611585565b6020919350806001915483858901015201910190918492611694565b6001600160a01b03165f9081527fe8b26c30fad74198956032a3533d903385d56dd795af560196f9c78d4af40d016020526040902090565b90916001600160a01b037f0000000000000000000000000000000000000000000000000000000000000000163081149081156117f3575b5061097757611744611a8c565b6040516352d1902d60e01b8152926020846004816001600160a01b0387165afa5f94816117c2575b5061178d57634c9c8ce360e01b5f526001600160a01b03831660045260245ffd5b90915f51602061305b5f395f51905f5284036117ae5761088b9293506124f9565b632a87526960e21b5f52600484905260245ffd5b6117e591955060203d6020116117ec575b6117dd818361085a565b810190611f0a565b935f61176c565b503d6117d3565b5f51602061305b5f395f51905f52546001600160a01b0316141590505f611737565b6040519061182460208361085a565b5f808352366020840137565b6040519061183f60408361085a565b60078252661d93585a1bdd5d60ca1b6020830152565b929190611860611830565b9360405161186f60408261085a565b60048152631593521560e21b602082015261188861269c565b61189061269c565b855167ffffffffffffffff8111610855576118c1816118bc5f516020612fbb5f395f51905f5254611516565b6126c7565b6020601f821160011461195b5761194192611900836119479796946119149461194d9b9c5f92611950575b50508160011b915f199060031b1c19161790565b5f516020612fbb5f395f51905f52556127ce565b61191c61269c565b61192c611927611830565b612002565b61193461269c565b61193c61269c565b611b41565b50611bdd565b50611c9e565b50565b015190505f806118ec565b5f516020612fbb5f395f51905f525f52601f198216977f2ae08a8e29253f69ac5d979a101956ab8f8d9d7ded63fa7a83b16fc47648eab0985f5b8181106119ed57508361194d999a6119149461194197946119479a9997600195106119d5575b505050811b015f516020612fbb5f395f51905f52556127ce565b01515f1960f88460031b161c191690555f80806119bb565b838301518b556001909a019960209384019301611995565b60405190611a1282610839565b5f6020838281520152565b335f9081527f549fe2656c81d2947b3b913f0a53b9ea86c71e049f3a1b8aa23c09a8a05cb8d4602052604090205460ff1615611a5557565b63e2517d3f60e01b5f52336004527f9f2df0fed2c77648de5860a4cc508cd0818c85b8b8a1ab4ceeef8d981c8956a660245260445ffd5b335f9081527fab71e3f32666744d246edff3f96e4bdafee2e9867098cdd118a979a7464786a8602052604090205460ff1615611ac457565b63e2517d3f60e01b5f52336004527f189ab7a9244df0848122154315af71fe140f3db0fe014031783b0946b8c9d2e360245260445ffd5b5f8181525f51602061309b5f395f51905f526020908152604080832033845290915290205460ff1615611b2b5750565b63e2517d3f60e01b5f523360045260245260445ffd5b6001600160a01b0381165f9081527fb7db2dd08fcb62d0c9e08c51941cae53c267786a0b75803fb7960902fc8ef97d602052604090205460ff16611bd8576001600160a01b03165f8181527fb7db2dd08fcb62d0c9e08c51941cae53c267786a0b75803fb7960902fc8ef97d60205260408120805460ff191660011790553391905f516020612f9b5f395f51905f528180a4600190565b505f90565b6001600160a01b0381165f9081527f549fe2656c81d2947b3b913f0a53b9ea86c71e049f3a1b8aa23c09a8a05cb8d4602052604090205460ff16611bd8576001600160a01b0381165f9081527f549fe2656c81d2947b3b913f0a53b9ea86c71e049f3a1b8aa23c09a8a05cb8d460205260409020805460ff1916600117905533906001600160a01b03167f9f2df0fed2c77648de5860a4cc508cd0818c85b8b8a1ab4ceeef8d981c8956a65f516020612f9b5f395f51905f525f80a4600190565b6001600160a01b0381165f9081527fab71e3f32666744d246edff3f96e4bdafee2e9867098cdd118a979a7464786a8602052604090205460ff16611bd8576001600160a01b0381165f9081527fab71e3f32666744d246edff3f96e4bdafee2e9867098cdd118a979a7464786a860205260409020805460ff1916600117905533906001600160a01b03167f189ab7a9244df0848122154315af71fe140f3db0fe014031783b0946b8c9d2e35f516020612f9b5f395f51905f525f80a4600190565b5f8181525f51602061309b5f395f51905f52602090815260408083206001600160a01b038616845290915290205460ff16611dee575f8181525f51602061309b5f395f51905f52602090815260408083206001600160a01b03861684529091529020805460ff1916600117905533916001600160a01b0316905f516020612f9b5f395f51905f525f80a4600190565b50505f90565b5f8181525f51602061309b5f395f51905f52602090815260408083206001600160a01b038616845290915290205460ff1615611dee575f8181525f51602061309b5f395f51905f52602090815260408083206001600160a01b03861684529091529020805460ff1916905533916001600160a01b0316907ff6391f5c32d9c69d2a47ea670b442974b53935d1edc7fd64eb21e047a839171b5f80a4600190565b65ffffffffffff611ea4436122ea565b1680821015611eb757506102ee906122ea565b90637669fc0f60e11b5f5260045260245260445ffd5b634e487b7160e01b5f52601160045260245ffd5b5f1981019190821161067657565b906001820180921161067657565b9190820180921161067657565b908160209103126102b5575190565b6001600160a01b038181165f8181527fe8b26c30fad74198956032a3533d903385d56dd795af560196f9c78d4af40d006020526040812080548685166001600160a01b03198216811790925561088b96941694611fd29390928691907f3134e8a2e6d97e929a7e54011ea5485d7d196dd5f0ba4d4ef95803e8e3fc257f9080a46001600160a01b03165f9081527f52c63247e1f47db19d5ce0460030c497f067ca4cebf71ba98eeadabe20bace00602052604090205490565b91612598565b80549081611fe65750505f90565b815f19810111610676575f525f199060205f2001015460301c90565b61200a61269c565b6040519061201960408361085a565b60018252603160f81b602083015261202f61269c565b80519067ffffffffffffffff8211610855576120618261205c5f516020612fdb5f395f51905f5254611516565b612723565b602090601f83116001146120f8579180612094926120a895945f926119505750508160011b915f199060031b1c19161790565b5f516020612fdb5f395f51905f52556128e2565b6120d05f7fa16a46d94261c7517cc8ff89f61c0ce93598e3c849801011dee649a6a557d10055565b61088b5f7fa16a46d94261c7517cc8ff89f61c0ce93598e3c849801011dee649a6a557d10155565b5f516020612fdb5f395f51905f525f52601f19831691907f42ad5d3e1f2e6e70edcf6d991b8a3023d3fca8047a131592f9edb9fd9b89d57d925f5b81811061217f57509160019391856120a897969410612167575b505050811b015f516020612fdb5f395f51905f52556128e2565b01515f1960f88460031b161c191690555f808061214d565b92936020600181928786015181550195019301612133565b6042906121a2612283565b906040519161190160f01b8352600283015260228201522090565b916102ee9391611166936129f6565b90916001600160a01b03821691908215612270576001600160a01b03841693841561225d57612250829161141a7f8c5be1e5ebec7d5bd14f71427d1e84f3dd0314c0f7b2291e5b200ac8c7c3b9259560018060a01b03165f527f52c63247e1f47db19d5ce0460030c497f067ca4cebf71ba98eeadabe20bace0160205260405f2090565b55604051908152602090a3565b634a1406b160e11b5f525f60045260245ffd5b63e602df0560e01b5f525f60045260245ffd5b61228b612b46565b612293612bb0565b6040519060208201927f8b73c3c69bb8fe3d512ecc4cf759cc79239f7b179b0ffacaa9a75d522b39400f8452604083015260608201524660808201523060a082015260a081526122e460c08261085a565b51902090565b65ffffffffffff81116123025765ffffffffffff1690565b6306dfcc6560e41b5f52603060045260245260445ffd5b8115612323570490565b634e487b7160e01b5f52601260045260245ffd5b60018111156102ee57806001600160801b821015612458575b6123fe6123f46123ea6123e06123d66123cc6123bb6124059760048a600160401b61240a9c101561244b575b64010000000081101561243e575b62010000811015612431575b610100811015612424575b6010811015612417575b101561240f575b60030260011c90565b6123c5818b612319565b0160011c90565b6123c5818a612319565b6123c58189612319565b6123c58188612319565b6123c58187612319565b6123c58186612319565b8093612319565b821190565b900390565b60011b6123b2565b60041c9160021b916123ab565b60081c9160041b916123a1565b60101c9160081b91612396565b60201c9160101b9161238a565b60401c9160201b9161237c565b505061240a6124056123fe6123f46123ea6123e06123d66123cc6123bb61247f8a60801c90565b9850600160401b97506123509650505050505050565b91905b8382106124a55750505090565b9091928083169080841860011c820180921161067657845f5265ffffffffffff8260205f2001541665ffffffffffff8416105f146124e75750925b9190612498565b9392506124f390611eef565b916124e0565b90813b15612577575f51602061305b5f395f51905f5280546001600160a01b0319166001600160a01b0384169081179091557fbc7cd75a20ee27fd9adebab32041f755214dbc6bffa90cc0225b39da2e5c2d3b5f80a280511561255f5761194d91612bf5565b50503461256857565b63b398979f60e01b5f5260045ffd5b50634c9c8ce360e01b5f9081526001600160a01b0391909116600452602490fd5b6001600160a01b03808316939291908116908185141580612693575b6125c0575b5050505050565b81612635575b5050826125d5575b80806125b9565b7fdec2bacdd2f05b59de34da9b523dff8be42e5e38e818c82fdb0bae774387a7249161260c612606612612936116c8565b91612c39565b90612ca2565b604080516001600160d01b039384168152919092166020820152a25f80806125ce565b6126716126627fdec2bacdd2f05b59de34da9b523dff8be42e5e38e818c82fdb0bae774387a724926116c8565b61266b86612c39565b90612c6a565b604080516001600160d01b039384168152919092166020820152a25f806125c6565b508315156125b4565b60ff5f5160206130bb5f395f51905f525460401c16156126b857565b631afcd79f60e31b5f5260045ffd5b601f81116126d3575050565b5f516020612fbb5f395f51905f525f5260205f20906020601f840160051c83019310612719575b601f0160051c01905b81811061270e575050565b5f8155600101612703565b90915081906126fa565b601f811161272f575050565b5f516020612fdb5f395f51905f525f5260205f20906020601f840160051c83019310612775575b601f0160051c01905b81811061276a575050565b5f815560010161275f565b9091508190612756565b601f821161278c57505050565b5f5260205f20906020601f840160051c830193106127c4575b601f0160051c01905b8181106127b9575050565b5f81556001016127ae565b90915081906127a5565b90815167ffffffffffffffff81116108555761280e816127fb5f516020612ffb5f395f51905f5254611516565b5f516020612ffb5f395f51905f5261277f565b602092601f821160011461284e5761283d929382915f926119505750508160011b915f199060031b1c19161790565b5f516020612ffb5f395f51905f5255565b5f516020612ffb5f395f51905f525f52601f198216937f46a2803e59a4de4e7a4c574b1243f25977ac4c77d5a1a4a609b5394cebb4a2aa915f5b8681106128ca57508360019596106128b2575b505050811b015f516020612ffb5f395f51905f5255565b01515f1960f88460031b161c191690555f808061289b565b91926020600181928685015181550194019201612888565b90815167ffffffffffffffff8111610855576129228161290f5f51602061303b5f395f51905f5254611516565b5f51602061303b5f395f51905f5261277f565b602092601f821160011461296257612951929382915f926119505750508160011b915f199060031b1c19161790565b5f51602061303b5f395f51905f5255565b5f51602061303b5f395f51905f525f52601f198216937f5f9ce34815f8e11431c7bb75a8e6886a91478f7ffc1dbb0a98dc240fddd76b75915f5b8681106129de57508360019596106129c6575b505050811b015f51602061303b5f395f51905f5255565b01515f1960f88460031b161c191690555f80806129af565b9192602060018192868501518155019401920161299c565b91907f7fffffffffffffffffffffffffffffff5d576e7357a4501ddfe92f46681b20a08411612a78579160209360809260ff5f9560405194855216868401526040830152606082015282805260015afa15612a6d575f516001600160a01b03811615612a6357905f905f90565b505f906001905f90565b6040513d5f823e3d90fd5b5050505f9160039190565b60041115612a8d57565b634e487b7160e01b5f52602160045260245ffd5b612aaa81612a83565b80612ab3575050565b612abc81612a83565b60018103612ad35763f645eedf60e01b5f5260045ffd5b612adc81612a83565b60028103612af7575063fce698f760e01b5f5260045260245ffd5b80612b03600392612a83565b14612b0b5750565b6335e2f38360e21b5f5260045260245ffd5b8054821015612b32575f5260205f2001905f90565b634e487b7160e01b5f52603260045260245ffd5b612b4e61154e565b8051908115612b5e576020012090565b50507fa16a46d94261c7517cc8ff89f61c0ce93598e3c849801011dee649a6a557d100548015612b8b5790565b507fc5d2460186f7233c927e7db2dcc703c0e500b653ca82273b7bfad8045d85a47090565b612bb861161b565b8051908115612bc8576020012090565b50507fa16a46d94261c7517cc8ff89f61c0ce93598e3c849801011dee649a6a557d101548015612b8b5790565b5f806102ee93602081519101845af43d15612c31573d91612c158361088d565b92612c23604051948561085a565b83523d5f602085013e612e0b565b606091612e0b565b6001600160d01b038111612c53576001600160d01b031690565b6306dfcc6560e41b5f5260d060045260245260445ffd5b90612c74436122ea565b90612c7e83611fd8565b6001600160d01b03918216908216039190821161067657612c9e92612ec4565b9091565b90612cac436122ea565b90612cb683611fd8565b6001600160d01b03918216908216019190821161067657612c9e92612ec4565b612cdf82612c39565b612ce8436122ea565b90612cff5f51602061307b5f395f51905f52611fd8565b6001600160d01b039182169082160190811161067657612d2c915f51602061307b5f395f51905f52612ec4565b50506001600160a01b0316908115612da5575b7fe8b26c30fad74198956032a3533d903385d56dd795af560196f9c78d4af40d006020527fd4fb29e10204005f1a39963c6862b79a755e22f0177c53f05cdc3786c702f974545f92835260409092205461088b926001600160a01b039182169116612598565b612dae81612c39565b91612db8436122ea565b92612dcf5f51602061307b5f395f51905f52611fd8565b6001600160d01b0391821690821603939084116106765761088b93612e01915f51602061307b5f395f51905f52612ec4565b9050509150612d3f565b90612e2f5750805115612e2057602081519101fd5b63d6bda27560e01b5f5260045ffd5b81511580612e60575b612e40575090565b639996b31560e01b5f9081526001600160a01b0391909116600452602490fd5b50803b15612e38565b8054600160401b81101561085557612e8691600182018155612b1d565b612eb157815160209092015160301b65ffffffffffff191665ffffffffffff92909216919091179055565b634e487b7160e01b5f525f60045260245ffd5b80549293928015612f7057612edb612ee691611ee1565b825f5260205f200190565b8054603081901c9365ffffffffffff91821692918116808411612f6157879303612f2d5750612f2992509065ffffffffffff82549181199060301b169116179055565b9190565b915050612f2991612f4d612f3f61087c565b65ffffffffffff9093168352565b6001600160d01b0386166020830152612e69565b632520601d60e01b5f5260045ffd5b5090612f9591612f81612f3f61087c565b6001600160d01b0385166020830152612e69565b5f919056fe2f8788117e7eff1d82e926ec794901d17c78024a50270940304540a733656f0d52c63247e1f47db19d5ce0460030c497f067ca4cebf71ba98eeadabe20bace03a16a46d94261c7517cc8ff89f61c0ce93598e3c849801011dee649a6a557d10252c63247e1f47db19d5ce0460030c497f067ca4cebf71ba98eeadabe20bace0452c63247e1f47db19d5ce0460030c497f067ca4cebf71ba98eeadabe20bace02a16a46d94261c7517cc8ff89f61c0ce93598e3c849801011dee649a6a557d103360894a13ba1a3210667c828492db98dca3e2076cc3735a920a3ca505d382bbce8b26c30fad74198956032a3533d903385d56dd795af560196f9c78d4af40d0202dd7bc7dec4dceedda775e58dd541e08a116c6c53815c0bd028192f7b626800f0c57e16840df040f15088dc2f81fe391c3923bec73e23a9662efc9c229c6a00f0c57e16840df040f15088dc2f81fe391c3923bec73e23a9662efc9c229c6a00","linkReferences":{}},"methodIdentifiers":{"CLOCK_MODE()":"4bf5d7e9","DEFAULT_ADMIN_ROLE()":"a217fddf","DOMAIN_SEPARATOR()":"3644e515","MINTER_ROLE()":"d5391393","UPGRADER_ROLE()":"f72c0d8b","UPGRADE_INTERFACE_VERSION()":"ad3cb1cc","allowance(address,address)":"dd62ed3e","approve(address,uint256)":"095ea7b3","balanceOf(address)":"70a08231","checkpoints(address,uint32)":"f1127ed8","clock()":"91ddadf4","decimals()":"313ce567","delegate(address)":"5c19a95c","delegateBySig(address,uint256,uint256,uint8,bytes32,bytes32)":"c3cda520","delegates(address)":"587cde1e","eip712Domain()":"84b0196e","getPastTotalSupply(uint256)":"8e539e8c","getPastVotes(address,uint256)":"3a46b1a8","getRoleAdmin(bytes32)":"248a9ca3","getVotes(address)":"9ab24eb0","grantRole(bytes32,address)":"2f2ff15d","hasRole(bytes32,address)":"91d14854","initialize(address,address,address)":"c0c53b8b","mint(address,uint256)":"40c10f19","name()":"06fdde03","nonces(address)":"7ecebe00","numCheckpoints(address)":"6fcfff45","permit(address,address,uint256,uint256,uint8,bytes32,bytes32)":"d505accf","proxiableUUID()":"52d1902d","renounceRole(bytes32,address)":"36568abe","revokeRole(bytes32,address)":"d547741f","supportsInterface(bytes4)":"01ffc9a7","symbol()":"95d89b41","totalSupply()":"18160ddd","transfer(address,uint256)":"a9059cbb","transferFrom(address,address,uint256)":"23b872dd","upgradeToAndCall(address,bytes)":"4f1ef286"},"storageLayout":{"storage":[],"types":{}},"id":1}