{"abi":[{"type":"constructor","inputs":[],"stateMutability":"nonpayable"},{"type":"function","name":"DEFAULT_ADMIN_ROLE","inputs":[],"outputs":[{"name":"","type":"bytes32","internalType":"bytes32"}],"stateMutability":"view"},{"type":"function","name":"LEXICON_ORACLE_MANAGER_ROLE","inputs":[],"outputs":[{"name":"","type":"bytes32","internalType":"bytes32"}],"stateMutability":"view"},{"type":"function","name":"UPGRADE_INTERFACE_VERSION","inputs":[],"outputs":[{"name":"","type":"string","internalType":"string"}],"stateMutability":"view"},{"type":"function","name":"consensusRequired","inputs":[{"name":"","type":"bytes32","internalType":"bytes32"}],"outputs":[{"name":"","type":"uint256","internalType":"uint256"}],"stateMutability":"view"},{"type":"function","name":"getConsensusHistory","inputs":[{"name":"propertyHash","type":"bytes32","internalType":"bytes32"},{"name":"dataGroupHash","type":"bytes32","internalType":"bytes32"}],"outputs":[{"name":"","type":"tuple[]","internalType":"struct IPropertyDataConsensus.DataVersion[]","components":[{"name":"dataHash","type":"bytes32","internalType":"bytes32"},{"name":"oracles","type":"address[]","internalType":"address[]"},{"name":"timestamp","type":"uint256","internalType":"uint256"}]}],"stateMutability":"view"},{"type":"function","name":"getCurrentConsensusParticipants","inputs":[{"name":"propertyHash","type":"bytes32","internalType":"bytes32"},{"name":"dataGroupHash","type":"bytes32","internalType":"bytes32"}],"outputs":[{"name":"","type":"address[]","internalType":"address[]"}],"stateMutability":"view"},{"type":"function","name":"getCurrentFieldDataHash","inputs":[{"name":"propertyHash","type":"bytes32","internalType":"bytes32"},{"name":"dataGroupHash","type":"bytes32","internalType":"bytes32"}],"outputs":[{"name":"","type":"bytes32","internalType":"bytes32"}],"stateMutability":"view"},{"type":"function","name":"getParticipantsForConsensusDataHash","inputs":[{"name":"propertyHash","type":"bytes32","internalType":"bytes32"},{"name":"dataGroupHash","type":"bytes32","internalType":"bytes32"},{"name":"dataHash","type":"bytes32","internalType":"bytes32"}],"outputs":[{"name":"","type":"address[]","internalType":"address[]"}],"stateMutability":"view"},{"type":"function","name":"getRoleAdmin","inputs":[{"name":"role","type":"bytes32","internalType":"bytes32"}],"outputs":[{"name":"","type":"bytes32","internalType":"bytes32"}],"stateMutability":"view"},{"type":"function","name":"getSubmitterCountForDataHash","inputs":[{"name":"propertyHash","type":"bytes32","internalType":"bytes32"},{"name":"dataGroupHash","type":"bytes32","internalType":"bytes32"},{"name":"dataHash","type":"bytes32","internalType":"bytes32"}],"outputs":[{"name":"count","type":"uint256","internalType":"uint256"}],"stateMutability":"view"},{"type":"function","name":"grantRole","inputs":[{"name":"role","type":"bytes32","internalType":"bytes32"},{"name":"account","type":"address","internalType":"address"}],"outputs":[],"stateMutability":"nonpayable"},{"type":"function","name":"hasRole","inputs":[{"name":"role","type":"bytes32","internalType":"bytes32"},{"name":"account","type":"address","internalType":"address"}],"outputs":[{"name":"","type":"bool","internalType":"bool"}],"stateMutability":"view"},{"type":"function","name":"hasUserSubmittedDataHash","inputs":[{"name":"propertyHash","type":"bytes32","internalType":"bytes32"},{"name":"dataGroupHash","type":"bytes32","internalType":"bytes32"},{"name":"dataHash","type":"bytes32","internalType":"bytes32"},{"name":"submitter","type":"address","internalType":"address"}],"outputs":[{"name":"","type":"bool","internalType":"bool"}],"stateMutability":"view"},{"type":"function","name":"initialize","inputs":[{"name":"_minimumConsensus","type":"uint256","internalType":"uint256"},{"name":"initialAdmin","type":"address","internalType":"address"}],"outputs":[],"stateMutability":"nonpayable"},{"type":"function","name":"minimumConsensus","inputs":[],"outputs":[{"name":"","type":"uint256","internalType":"uint256"}],"stateMutability":"view"},{"type":"function","name":"proxiableUUID","inputs":[],"outputs":[{"name":"","type":"bytes32","internalType":"bytes32"}],"stateMutability":"view"},{"type":"function","name":"renounceRole","inputs":[{"name":"role","type":"bytes32","internalType":"bytes32"},{"name":"callerConfirmation","type":"address","internalType":"address"}],"outputs":[],"stateMutability":"nonpayable"},{"type":"function","name":"revokeRole","inputs":[{"name":"role","type":"bytes32","internalType":"bytes32"},{"name":"account","type":"address","internalType":"address"}],"outputs":[],"stateMutability":"nonpayable"},{"type":"function","name":"setConsensusRequired","inputs":[{"name":"dataGroupHash","type":"bytes32","internalType":"bytes32"},{"name":"requiredConsensus","type":"uint256","internalType":"uint256"}],"outputs":[],"stateMutability":"nonpayable"},{"type":"function","name":"setVMahout","inputs":[{"name":"_vMahout","type":"address","internalType":"address"}],"outputs":[],"stateMutability":"nonpayable"},{"type":"function","name":"submitBatchData","inputs":[{"name":"items","type":"tuple[]","internalType":"struct IPropertyDataConsensus.DataItem[]","components":[{"name":"propertyHash","type":"bytes32","internalType":"bytes32"},{"name":"dataGroupHash","type":"bytes32","internalType":"bytes32"},{"name":"dataHash","type":"bytes32","internalType":"bytes32"}]}],"outputs":[],"stateMutability":"nonpayable"},{"type":"function","name":"submitData","inputs":[{"name":"propertyHash","type":"bytes32","internalType":"bytes32"},{"name":"dataGroupHash","type":"bytes32","internalType":"bytes32"},{"name":"dataHash","type":"bytes32","internalType":"bytes32"}],"outputs":[],"stateMutability":"nonpayable"},{"type":"function","name":"supportsInterface","inputs":[{"name":"interfaceId","type":"bytes4","internalType":"bytes4"}],"outputs":[{"name":"","type":"bool","internalType":"bool"}],"stateMutability":"view"},{"type":"function","name":"updateMinimumConsensus","inputs":[{"name":"newMinimumConsensus","type":"uint256","internalType":"uint256"}],"outputs":[],"stateMutability":"nonpayable"},{"type":"function","name":"upgradeToAndCall","inputs":[{"name":"newImplementation","type":"address","internalType":"address"},{"name":"data","type":"bytes","internalType":"bytes"}],"outputs":[],"stateMutability":"payable"},{"type":"function","name":"vMahout","inputs":[],"outputs":[{"name":"","type":"address","internalType":"contract IERC20Mintable"}],"stateMutability":"view"},{"type":"event","name":"ConsensusReached","inputs":[{"name":"propertyHash","type":"bytes32","indexed":true,"internalType":"bytes32"},{"name":"dataGroupHash","type":"bytes32","indexed":true,"internalType":"bytes32"},{"name":"dataHash","type":"bytes32","indexed":false,"internalType":"bytes32"},{"name":"oracles","type":"address[]","indexed":false,"internalType":"address[]"}],"anonymous":false},{"type":"event","name":"ConsensusUpdated","inputs":[{"name":"propertyHash","type":"bytes32","indexed":true,"internalType":"bytes32"},{"name":"dataGroupHash","type":"bytes32","indexed":true,"internalType":"bytes32"},{"name":"oldDataHash","type":"bytes32","indexed":false,"internalType":"bytes32"},{"name":"newDataHash","type":"bytes32","indexed":false,"internalType":"bytes32"},{"name":"newOracles","type":"address[]","indexed":false,"internalType":"address[]"}],"anonymous":false},{"type":"event","name":"DataGroupConsensusUpdated","inputs":[{"name":"dataGroupHash","type":"bytes32","indexed":true,"internalType":"bytes32"},{"name":"oldValue","type":"uint256","indexed":false,"internalType":"uint256"},{"name":"newValue","type":"uint256","indexed":false,"internalType":"uint256"}],"anonymous":false},{"type":"event","name":"DataSubmitted","inputs":[{"name":"propertyHash","type":"bytes32","indexed":true,"internalType":"bytes32"},{"name":"dataGroupHash","type":"bytes32","indexed":true,"internalType":"bytes32"},{"name":"submitter","type":"address","indexed":true,"internalType":"address"},{"name":"dataHash","type":"bytes32","indexed":false,"internalType":"bytes32"}],"anonymous":false},{"type":"event","name":"Initialized","inputs":[{"name":"version","type":"uint64","indexed":false,"internalType":"uint64"}],"anonymous":false},{"type":"event","name":"MinimumConsensusUpdated","inputs":[{"name":"oldValue","type":"uint256","indexed":false,"internalType":"uint256"},{"name":"newValue","type":"uint256","indexed":false,"internalType":"uint256"}],"anonymous":false},{"type":"event","name":"RoleAdminChanged","inputs":[{"name":"role","type":"bytes32","indexed":true,"internalType":"bytes32"},{"name":"previousAdminRole","type":"bytes32","indexed":true,"internalType":"bytes32"},{"name":"newAdminRole","type":"bytes32","indexed":true,"internalType":"bytes32"}],"anonymous":false},{"type":"event","name":"RoleGranted","inputs":[{"name":"role","type":"bytes32","indexed":true,"internalType":"bytes32"},{"name":"account","type":"address","indexed":true,"internalType":"address"},{"name":"sender","type":"address","indexed":true,"internalType":"address"}],"anonymous":false},{"type":"event","name":"RoleRevoked","inputs":[{"name":"role","type":"bytes32","indexed":true,"internalType":"bytes32"},{"name":"account","type":"address","indexed":true,"internalType":"address"},{"name":"sender","type":"address","indexed":true,"internalType":"address"}],"anonymous":false},{"type":"event","name":"Upgraded","inputs":[{"name":"implementation","type":"address","indexed":true,"internalType":"address"}],"anonymous":false},{"type":"error","name":"AccessControlBadConfirmation","inputs":[]},{"type":"error","name":"AccessControlUnauthorizedAccount","inputs":[{"name":"account","type":"address","internalType":"address"},{"name":"neededRole","type":"bytes32","internalType":"bytes32"}]},{"type":"error","name":"AddressEmptyCode","inputs":[{"name":"target","type":"address","internalType":"address"}]},{"type":"error","name":"AlreadySubmittedThisDataHash","inputs":[{"name":"submitter","type":"address","internalType":"address"},{"name":"propertyHashFieldHash","type":"bytes32","internalType":"bytes32"},{"name":"dataHash","type":"bytes32","internalType":"bytes32"}]},{"type":"error","name":"DataHashAlreadyConsensus","inputs":[{"name":"propertyHashFieldHash","type":"bytes32","internalType":"bytes32"},{"name":"dataHash","type":"bytes32","internalType":"bytes32"}]},{"type":"error","name":"ERC1967InvalidImplementation","inputs":[{"name":"implementation","type":"address","internalType":"address"}]},{"type":"error","name":"ERC1967NonPayable","inputs":[]},{"type":"error","name":"EmptyBatchSubmission","inputs":[]},{"type":"error","name":"FailedCall","inputs":[]},{"type":"error","name":"InvalidInitialization","inputs":[]},{"type":"error","name":"InvalidMinimumConsensus","inputs":[{"name":"value","type":"uint256","internalType":"uint256"}]},{"type":"error","name":"NoConsensusHistory","inputs":[{"name":"propertyHashFieldHash","type":"bytes32","internalType":"bytes32"}]},{"type":"error","name":"NoConsensusReachedForDataHash","inputs":[{"name":"propertyHashFieldHash","type":"bytes32","internalType":"bytes32"},{"name":"dataHash","type":"bytes32","internalType":"bytes32"}]},{"type":"error","name":"NotInitializing","inputs":[]},{"type":"error","name":"UUPSUnauthorizedCallContext","inputs":[]},{"type":"error","name":"UUPSUnsupportedProxiableUUID","inputs":[{"name":"slot","type":"bytes32","internalType":"bytes32"}]}],"bytecode":{"object":"0x60a06040523073ffffffffffffffffffffffffffffffffffffffff1660809073ffffffffffffffffffffffffffffffffffffffff16815250348015610042575f5ffd5b5061005161005660201b60201c565b6101d1565b5f61006561015460201b60201c565b9050805f0160089054906101000a900460ff16156100af576040517ff92ee8a900000000000000000000000000000000000000000000000000000000815260040160405180910390fd5b67ffffffffffffffff8016815f015f9054906101000a900467ffffffffffffffff1667ffffffffffffffff16146101515767ffffffffffffffff815f015f6101000a81548167ffffffffffffffff021916908367ffffffffffffffff1602179055507fc7f505b2f371ae2175ee4913f4499e1f2633a7b5936321eed1cdaeb6115181d267ffffffffffffffff60405161014891906101b8565b60405180910390a15b50565b5f5f61016461016d60201b60201c565b90508091505090565b5f7ff0c57e16840df040f15088dc2f81fe391c3923bec73e23a9662efc9c229c6a005f1b905090565b5f67ffffffffffffffff82169050919050565b6101b281610196565b82525050565b5f6020820190506101cb5f8301846101a9565b92915050565b608051612dba6101f75f395f81816117a9015281816117fe01526119bd0152612dba5ff3fe608060405260043610610180575f3560e01c806354b72372116100d0578063af38ba1c11610089578063d9fddf4011610063578063d9fddf40146105a6578063da35a26f146105d0578063df57b4c6146105f8578063eb17c3331461063457610180565b8063af38ba1c1461051a578063b35d6ef214610556578063d547741f1461057e57610180565b806354b72372146103ea5780635ebe790b146104265780636b335ede1461046257806391d148541461048a578063a217fddf146104c6578063ad3cb1cc146104f057610180565b80632f2ff15d1161013d578063409546961161011757806340954696146103525780634d27bb0e1461037a5780634f1ef286146103a457806352d1902d146103c057610180565b80632f2ff15d146102c657806336568abe146102ee5780633f6913ec1461031657610180565b806301ffc9a71461018457806302192a94146101c0578063239ac3fd146101ea578063248a9ca31461022657806326b098b414610262578063281ec99b1461029e575b5f5ffd5b34801561018f575f5ffd5b506101aa60048036038101906101a591906120ca565b61065c565b6040516101b7919061210f565b60405180910390f35b3480156101cb575f5ffd5b506101d46106d5565b6040516101e191906121a2565b60405180910390f35b3480156101f5575f5ffd5b50610210600480360381019061020b91906121ee565b6106fa565b60405161021d91906122f4565b60405180910390f35b348015610231575f5ffd5b5061024c60048036038101906102479190612314565b6107ac565b604051610259919061234e565b60405180910390f35b34801561026d575f5ffd5b50610288600480360381019061028391906121ee565b6107d6565b604051610295919061234e565b60405180910390f35b3480156102a9575f5ffd5b506102c460048036038101906102bf9190612367565b6107ff565b005b3480156102d1575f5ffd5b506102ec60048036038101906102e791906123e1565b61080f565b005b3480156102f9575f5ffd5b50610314600480360381019061030f91906123e1565b610831565b005b348015610321575f5ffd5b5061033c6004803603810190610337919061241f565b6108ac565b604051610349919061210f565b60405180910390f35b34801561035d575f5ffd5b50610378600480360381019061037391906124b6565b6108f7565b005b348015610385575f5ffd5b5061038e610992565b60405161039b919061234e565b60405180910390f35b6103be60048036038101906103b9919061261d565b6109b6565b005b3480156103cb575f5ffd5b506103d46109d5565b6040516103e1919061234e565b60405180910390f35b3480156103f5575f5ffd5b50610410600480360381019061040b9190612314565b610a06565b60405161041d9190612686565b60405180910390f35b348015610431575f5ffd5b5061044c60048036038101906104479190612367565b610a1b565b60405161045991906122f4565b60405180910390f35b34801561046d575f5ffd5b506104886004803603810190610483919061269f565b610b97565b005b348015610495575f5ffd5b506104b060048036038101906104ab91906123e1565b610be7565b6040516104bd919061210f565b60405180910390f35b3480156104d1575f5ffd5b506104da610c58565b6040516104e7919061234e565b60405180910390f35b3480156104fb575f5ffd5b50610504610c5e565b604051610511919061272a565b60405180910390f35b348015610525575f5ffd5b50610540600480360381019061053b9190612367565b610c97565b60405161054d9190612686565b60405180910390f35b348015610561575f5ffd5b5061057c600480360381019061057791906127a7565b610cd7565b005b348015610589575f5ffd5b506105a4600480360381019061059f91906123e1565b610d95565b005b3480156105b1575f5ffd5b506105ba610db7565b6040516105c79190612686565b60405180910390f35b3480156105db575f5ffd5b506105f660048036038101906105f191906127f2565b610dbc565b005b348015610603575f5ffd5b5061061e600480360381019061061991906121ee565b610f68565b60405161062b91906129c2565b60405180910390f35b34801561063f575f5ffd5b5061065a600480360381019061065591906129e2565b611082565b005b5f7f7965db0b000000000000000000000000000000000000000000000000000000007bffffffffffffffffffffffffffffffffffffffffffffffffffffffff1916827bffffffffffffffffffffffffffffffffffffffffffffffffffffffff191614806106ce57506106cd82611117565b5b9050919050565b60045f9054906101000a900473ffffffffffffffffffffffffffffffffffffffff1681565b60605f6107078484611180565b90505f60025f8381526020019081526020015f205490505f5f1b8103610779575f67ffffffffffffffff811115610741576107406124f9565b5b60405190808252806020026020018201604052801561076f5781602001602082028036833780820191505090505b50925050506107a6565b6107a160015f8481526020019081526020015f205f8381526020019081526020015f206111b2565b925050505b92915050565b5f5f6107b66111d1565b9050805f015f8481526020019081526020015f2060010154915050919050565b5f5f6107e28484611180565b905060025f8281526020019081526020015f205491505092915050565b61080a8383836111f8565b505050565b610818826107ac565b6108218161156f565b61082b8383611583565b50505050565b61083961167b565b73ffffffffffffffffffffffffffffffffffffffff168173ffffffffffffffffffffffffffffffffffffffff161461089d576040517f6697b23200000000000000000000000000000000000000000000000000000000815260040160405180910390fd5b6108a78282611682565b505050565b5f5f6108b88686611180565b90506108ec8360015f8481526020019081526020015f205f8781526020019081526020015f2061177a90919063ffffffff16565b915050949350505050565b5f5f1b6109038161156f565b600382101561094957816040517f2ba946960000000000000000000000000000000000000000000000000000000081526004016109409190612686565b60405180910390fd5b5f5f549050825f819055507fce431f13d55a0ddc2d40bf6b4a9ebb20e856b956707f8e582d39101fb6d7ed388184604051610985929190612a20565b60405180910390a1505050565b7f81319ce59160b7e0f0571d4284cf7ea1ddac526e8f19de6eb9e8826a07b91f1681565b6109be6117a7565b6109c78261188d565b6109d1828261189d565b5050565b5f6109de6119bb565b7f360894a13ba1a3210667c828492db98dca3e2076cc3735a920a3ca505d382bbc5f1b905090565b6005602052805f5260405f205f915090505481565b60605f610a288585611180565b90505f60035f8381526020019081526020015f2090505f818054905090505b5f811115610b50578482600183610a5e9190612a74565b81548110610a6f57610a6e612aa7565b5b905f5260205f2090600302015f015403610b3d5781600182610a919190612a74565b81548110610aa257610aa1612aa7565b5b905f5260205f209060030201600101805480602002602001604051908101604052809291908181526020018280548015610b2e57602002820191905f5260205f20905b815f9054906101000a900473ffffffffffffffffffffffffffffffffffffffff1673ffffffffffffffffffffffffffffffffffffffff1681526020019060010190808311610ae5575b50505050509350505050610b90565b8080610b4890612ad4565b915050610a47565b5081846040517f3eff2bfe000000000000000000000000000000000000000000000000000000008152600401610b87929190612afb565b60405180910390fd5b9392505050565b5f5f1b610ba38161156f565b8160045f6101000a81548173ffffffffffffffffffffffffffffffffffffffff021916908373ffffffffffffffffffffffffffffffffffffffff1602179055505050565b5f5f610bf16111d1565b9050805f015f8581526020019081526020015f205f015f8473ffffffffffffffffffffffffffffffffffffffff1673ffffffffffffffffffffffffffffffffffffffff1681526020019081526020015f205f9054906101000a900460ff1691505092915050565b5f5f1b81565b6040518060400160405280600581526020017f352e302e3000000000000000000000000000000000000000000000000000000081525081565b5f5f610ca38585611180565b9050610ccd60015f8381526020019081526020015f205f8581526020019081526020015f20611a42565b9150509392505050565b5f8282905090505f8103610d17576040517f4278ef3700000000000000000000000000000000000000000000000000000000815260040160405180910390fd5b5f5f90505b81811015610d8f57610d82848483818110610d3a57610d39612aa7565b5b9050606002015f0135858584818110610d5657610d55612aa7565b5b90506060020160200135868685818110610d7357610d72612aa7565b5b905060600201604001356111f8565b8080600101915050610d1c565b50505050565b610d9e826107ac565b610da78161156f565b610db18383611682565b50505050565b5f5481565b5f610dc5611a55565b90505f815f0160089054906101000a900460ff161590505f825f015f9054906101000a900467ffffffffffffffff1690505f5f8267ffffffffffffffff16148015610e0d5750825b90505f60018367ffffffffffffffff16148015610e4057505f3073ffffffffffffffffffffffffffffffffffffffff163b145b905081158015610e4e575080155b15610e85576040517ff92ee8a900000000000000000000000000000000000000000000000000000000815260040160405180910390fd5b6001855f015f6101000a81548167ffffffffffffffff021916908367ffffffffffffffff1602179055508315610ed2576001855f0160086101000a81548160ff0219169083151502179055505b610eda611a68565b610ee2611a72565b60038710610ef05786610ef3565b60035b5f81905550610f045f5f1b87611583565b508315610f5f575f855f0160086101000a81548160ff0219169083151502179055507fc7f505b2f371ae2175ee4913f4499e1f2633a7b5936321eed1cdaeb6115181d26001604051610f569190612b6e565b60405180910390a15b50505050505050565b60605f610f758484611180565b905060035f8281526020019081526020015f20805480602002602001604051908101604052809291908181526020015f905b82821015611075578382905f5260205f2090600302016040518060600160405290815f82015481526020016001820180548060200260200160405190810160405280929190818152602001828054801561105357602002820191905f5260205f20905b815f9054906101000a900473ffffffffffffffffffffffffffffffffffffffff1673ffffffffffffffffffffffffffffffffffffffff168152602001906001019080831161100a575b5050505050815260200160028201548152505081526020019060010190610fa7565b5050505091505092915050565b7f81319ce59160b7e0f0571d4284cf7ea1ddac526e8f19de6eb9e8826a07b91f166110ac8161156f565b5f60055f8581526020019081526020015f205490508260055f8681526020019081526020015f2081905550837f049e39ece3fa2c3035019078c10c9454103137cdc7f80d72e93002a24899b67a8285604051611109929190612a20565b60405180910390a250505050565b5f7f01ffc9a7000000000000000000000000000000000000000000000000000000007bffffffffffffffffffffffffffffffffffffffffffffffffffffffff1916827bffffffffffffffffffffffffffffffffffffffffffffffffffffffff1916149050919050565b5f8282604051602001611194929190612ba7565b60405160208183030381529060405280519060200120905092915050565b60605f6111c0835f01611a7c565b905060608190508092505050919050565b5f7f02dd7bc7dec4dceedda775e58dd541e08a116c6c53815c0bd028192f7b626800905090565b5f3390505f6112078585611180565b90508260025f8381526020019081526020015f2054036112605780836040517f89511214000000000000000000000000000000000000000000000000000000008152600401611257929190612afb565b60405180910390fd5b5f60015f8381526020019081526020015f205f8581526020019081526020015f2090506112968382611ad590919063ffffffff16565b508273ffffffffffffffffffffffffffffffffffffffff1685877f878692eb9250ee2812b244f36cc09713224fa1a7e24c292a4c878fe0a9d95e39876040516112df919061234e565b60405180910390a45f6112f186611b02565b9050806112fd83611a42565b10611566575f61130c836111b2565b90505f60405180606001604052808881526020018381526020014281525090505f60025f8781526020019081526020015f205490508760025f8881526020019081526020015f208190555060035f8781526020019081526020015f2082908060018154018082558091505060019003905f5260205f2090600302015f909190919091505f820151815f015560208201518160010190805190602001906113b3929190611fc2565b506040820151816002015550505f73ffffffffffffffffffffffffffffffffffffffff1660045f9054906101000a900473ffffffffffffffffffffffffffffffffffffffff1673ffffffffffffffffffffffffffffffffffffffff16146114db575f5f90505b83518110156114d95760045f9054906101000a900473ffffffffffffffffffffffffffffffffffffffff1673ffffffffffffffffffffffffffffffffffffffff166340c10f1985838151811061147257611471612aa7565b5b60200260200101516638d7ea4c6800006040518363ffffffff1660e01b815260040161149f929190612c1a565b5f604051808303815f87803b1580156114b6575f5ffd5b505af11580156114c8573d5f5f3e3d5ffd5b505050508080600101915050611419565b505b5f5f1b811461152657888a7fce941c3b95f419ade48d840a26d64fa70f4e9487e3c3573ff7819ac39c3419ce838b8760405161151993929190612c41565b60405180910390a3611562565b888a7f8d44cb907f6391d2bfc5d39e1e1b939089069c1ed52e3ad9cad46e9be0df05fe8a86604051611559929190612c7d565b60405180910390a35b5050505b50505050505050565b6115808161157b61167b565b611b30565b50565b5f5f61158d6111d1565b90506115998484610be7565b611670576001815f015f8681526020019081526020015f205f015f8573ffffffffffffffffffffffffffffffffffffffff1673ffffffffffffffffffffffffffffffffffffffff1681526020019081526020015f205f6101000a81548160ff02191690831515021790555061160c61167b565b73ffffffffffffffffffffffffffffffffffffffff168373ffffffffffffffffffffffffffffffffffffffff16857f2f8788117e7eff1d82e926ec794901d17c78024a50270940304540a733656f0d60405160405180910390a46001915050611675565b5f9150505b92915050565b5f33905090565b5f5f61168c6111d1565b90506116988484610be7565b1561176f575f815f015f8681526020019081526020015f205f015f8573ffffffffffffffffffffffffffffffffffffffff1673ffffffffffffffffffffffffffffffffffffffff1681526020019081526020015f205f6101000a81548160ff02191690831515021790555061170b61167b565b73ffffffffffffffffffffffffffffffffffffffff168373ffffffffffffffffffffffffffffffffffffffff16857ff6391f5c32d9c69d2a47ea670b442974b53935d1edc7fd64eb21e047a839171b60405160405180910390a46001915050611774565b5f9150505b92915050565b5f61179f835f018373ffffffffffffffffffffffffffffffffffffffff165f1b611b81565b905092915050565b7f000000000000000000000000000000000000000000000000000000000000000073ffffffffffffffffffffffffffffffffffffffff163073ffffffffffffffffffffffffffffffffffffffff16148061185457507f000000000000000000000000000000000000000000000000000000000000000073ffffffffffffffffffffffffffffffffffffffff1661183b611ba1565b73ffffffffffffffffffffffffffffffffffffffff1614155b1561188b576040517fe07c8dba00000000000000000000000000000000000000000000000000000000815260040160405180910390fd5b565b5f5f1b6118998161156f565b5050565b8173ffffffffffffffffffffffffffffffffffffffff166352d1902d6040518163ffffffff1660e01b8152600401602060405180830381865afa92505050801561190557506040513d601f19601f820116820180604052508101906119029190612cbf565b60015b61194657816040517f4c9c8ce300000000000000000000000000000000000000000000000000000000815260040161193d9190612cea565b60405180910390fd5b7f360894a13ba1a3210667c828492db98dca3e2076cc3735a920a3ca505d382bbc5f1b81146119ac57806040517faa1d49a40000000000000000000000000000000000000000000000000000000081526004016119a3919061234e565b60405180910390fd5b6119b68383611bf4565b505050565b7f000000000000000000000000000000000000000000000000000000000000000073ffffffffffffffffffffffffffffffffffffffff163073ffffffffffffffffffffffffffffffffffffffff1614611a40576040517fe07c8dba00000000000000000000000000000000000000000000000000000000815260040160405180910390fd5b565b5f611a4e825f01611c66565b9050919050565b5f5f611a5f611c75565b90508091505090565b611a70611c9e565b565b611a7a611c9e565b565b6060815f01805480602002602001604051908101604052809291908181526020018280548015611ac957602002820191905f5260205f20905b815481526020019060010190808311611ab5575b50505050509050919050565b5f611afa835f018373ffffffffffffffffffffffffffffffffffffffff165f1b611cde565b905092915050565b5f5f60055f8481526020019081526020015f205490505f8114611b255780611b28565b5f545b915050919050565b611b3a8282610be7565b611b7d5780826040517fe2517d3f000000000000000000000000000000000000000000000000000000008152600401611b74929190612d03565b60405180910390fd5b5050565b5f5f836001015f8481526020019081526020015f20541415905092915050565b5f611bcd7f360894a13ba1a3210667c828492db98dca3e2076cc3735a920a3ca505d382bbc5f1b611d45565b5f015f9054906101000a900473ffffffffffffffffffffffffffffffffffffffff16905090565b611bfd82611d4e565b8173ffffffffffffffffffffffffffffffffffffffff167fbc7cd75a20ee27fd9adebab32041f755214dbc6bffa90cc0225b39da2e5c2d3b60405160405180910390a25f81511115611c5957611c538282611e17565b50611c62565b611c61611e97565b5b5050565b5f815f01805490509050919050565b5f7ff0c57e16840df040f15088dc2f81fe391c3923bec73e23a9662efc9c229c6a005f1b905090565b611ca6611ed3565b611cdc576040517fd7e6bcf800000000000000000000000000000000000000000000000000000000815260040160405180910390fd5b565b5f611ce98383611b81565b611d3b57825f0182908060018154018082558091505060019003905f5260205f20015f9091909190915055825f0180549050836001015f8481526020019081526020015f208190555060019050611d3f565b5f90505b92915050565b5f819050919050565b5f8173ffffffffffffffffffffffffffffffffffffffff163b03611da957806040517f4c9c8ce3000000000000000000000000000000000000000000000000000000008152600401611da09190612cea565b60405180910390fd5b80611dd57f360894a13ba1a3210667c828492db98dca3e2076cc3735a920a3ca505d382bbc5f1b611d45565b5f015f6101000a81548173ffffffffffffffffffffffffffffffffffffffff021916908373ffffffffffffffffffffffffffffffffffffffff16021790555050565b60605f5f8473ffffffffffffffffffffffffffffffffffffffff1684604051611e409190612d6e565b5f60405180830381855af49150503d805f8114611e78576040519150601f19603f3d011682016040523d82523d5f602084013e611e7d565b606091505b5091509150611e8d858383611ef1565b9250505092915050565b5f341115611ed1576040517fb398979f00000000000000000000000000000000000000000000000000000000815260040160405180910390fd5b565b5f611edc611a55565b5f0160089054906101000a900460ff16905090565b606082611f0657611f0182611f7e565b611f76565b5f8251148015611f2c57505f8473ffffffffffffffffffffffffffffffffffffffff163b145b15611f6e57836040517f9996b315000000000000000000000000000000000000000000000000000000008152600401611f659190612cea565b60405180910390fd5b819050611f77565b5b9392505050565b5f81511115611f905780518082602001fd5b6040517fd6bda27500000000000000000000000000000000000000000000000000000000815260040160405180910390fd5b828054828255905f5260205f20908101928215612038579160200282015b82811115612037578251825f6101000a81548173ffffffffffffffffffffffffffffffffffffffff021916908373ffffffffffffffffffffffffffffffffffffffff16021790555091602001919060010190611fe0565b5b5090506120459190612049565b5090565b5b80821115612060575f815f90555060010161204a565b5090565b5f604051905090565b5f5ffd5b5f5ffd5b5f7fffffffff0000000000000000000000000000000000000000000000000000000082169050919050565b6120a981612075565b81146120b3575f5ffd5b50565b5f813590506120c4816120a0565b92915050565b5f602082840312156120df576120de61206d565b5b5f6120ec848285016120b6565b91505092915050565b5f8115159050919050565b612109816120f5565b82525050565b5f6020820190506121225f830184612100565b92915050565b5f73ffffffffffffffffffffffffffffffffffffffff82169050919050565b5f819050919050565b5f61216a61216561216084612128565b612147565b612128565b9050919050565b5f61217b82612150565b9050919050565b5f61218c82612171565b9050919050565b61219c81612182565b82525050565b5f6020820190506121b55f830184612193565b92915050565b5f819050919050565b6121cd816121bb565b81146121d7575f5ffd5b50565b5f813590506121e8816121c4565b92915050565b5f5f604083850312156122045761220361206d565b5b5f612211858286016121da565b9250506020612222858286016121da565b9150509250929050565b5f81519050919050565b5f82825260208201905092915050565b5f819050602082019050919050565b5f61225f82612128565b9050919050565b61226f81612255565b82525050565b5f6122808383612266565b60208301905092915050565b5f602082019050919050565b5f6122a28261222c565b6122ac8185612236565b93506122b783612246565b805f5b838110156122e75781516122ce8882612275565b97506122d98361228c565b9250506001810190506122ba565b5085935050505092915050565b5f6020820190508181035f83015261230c8184612298565b905092915050565b5f602082840312156123295761232861206d565b5b5f612336848285016121da565b91505092915050565b612348816121bb565b82525050565b5f6020820190506123615f83018461233f565b92915050565b5f5f5f6060848603121561237e5761237d61206d565b5b5f61238b868287016121da565b935050602061239c868287016121da565b92505060406123ad868287016121da565b9150509250925092565b6123c081612255565b81146123ca575f5ffd5b50565b5f813590506123db816123b7565b92915050565b5f5f604083850312156123f7576123f661206d565b5b5f612404858286016121da565b9250506020612415858286016123cd565b9150509250929050565b5f5f5f5f608085870312156124375761243661206d565b5b5f612444878288016121da565b9450506020612455878288016121da565b9350506040612466878288016121da565b9250506060612477878288016123cd565b91505092959194509250565b5f819050919050565b61249581612483565b811461249f575f5ffd5b50565b5f813590506124b08161248c565b92915050565b5f602082840312156124cb576124ca61206d565b5b5f6124d8848285016124a2565b91505092915050565b5f5ffd5b5f5ffd5b5f601f19601f8301169050919050565b7f4e487b71000000000000000000000000000000000000000000000000000000005f52604160045260245ffd5b61252f826124e9565b810181811067ffffffffffffffff8211171561254e5761254d6124f9565b5b80604052505050565b5f612560612064565b905061256c8282612526565b919050565b5f67ffffffffffffffff82111561258b5761258a6124f9565b5b612594826124e9565b9050602081019050919050565b828183375f83830152505050565b5f6125c16125bc84612571565b612557565b9050828152602081018484840111156125dd576125dc6124e5565b5b6125e88482856125a1565b509392505050565b5f82601f830112612604576126036124e1565b5b81356126148482602086016125af565b91505092915050565b5f5f604083850312156126335761263261206d565b5b5f612640858286016123cd565b925050602083013567ffffffffffffffff81111561266157612660612071565b5b61266d858286016125f0565b9150509250929050565b61268081612483565b82525050565b5f6020820190506126995f830184612677565b92915050565b5f602082840312156126b4576126b361206d565b5b5f6126c1848285016123cd565b91505092915050565b5f81519050919050565b5f82825260208201905092915050565b8281835e5f83830152505050565b5f6126fc826126ca565b61270681856126d4565b93506127168185602086016126e4565b61271f816124e9565b840191505092915050565b5f6020820190508181035f83015261274281846126f2565b905092915050565b5f5ffd5b5f5ffd5b5f5f83601f840112612767576127666124e1565b5b8235905067ffffffffffffffff8111156127845761278361274a565b5b6020830191508360608202830111156127a05761279f61274e565b5b9250929050565b5f5f602083850312156127bd576127bc61206d565b5b5f83013567ffffffffffffffff8111156127da576127d9612071565b5b6127e685828601612752565b92509250509250929050565b5f5f604083850312156128085761280761206d565b5b5f612815858286016124a2565b9250506020612826858286016123cd565b9150509250929050565b5f81519050919050565b5f82825260208201905092915050565b5f819050602082019050919050565b612862816121bb565b82525050565b5f82825260208201905092915050565b5f6128828261222c565b61288c8185612868565b935061289783612246565b805f5b838110156128c75781516128ae8882612275565b97506128b98361228c565b92505060018101905061289a565b5085935050505092915050565b6128dd81612483565b82525050565b5f606083015f8301516128f85f860182612859565b50602083015184820360208601526129108282612878565b915050604083015161292560408601826128d4565b508091505092915050565b5f61293b83836128e3565b905092915050565b5f602082019050919050565b5f61295982612830565b612963818561283a565b9350836020820285016129758561284a565b805f5b858110156129b057848403895281516129918582612930565b945061299c83612943565b925060208a01995050600181019050612978565b50829750879550505050505092915050565b5f6020820190508181035f8301526129da818461294f565b905092915050565b5f5f604083850312156129f8576129f761206d565b5b5f612a05858286016121da565b9250506020612a16858286016124a2565b9150509250929050565b5f604082019050612a335f830185612677565b612a406020830184612677565b9392505050565b7f4e487b71000000000000000000000000000000000000000000000000000000005f52601160045260245ffd5b5f612a7e82612483565b9150612a8983612483565b9250828203905081811115612aa157612aa0612a47565b5b92915050565b7f4e487b71000000000000000000000000000000000000000000000000000000005f52603260045260245ffd5b5f612ade82612483565b91505f8203612af057612aef612a47565b5b600182039050919050565b5f604082019050612b0e5f83018561233f565b612b1b602083018461233f565b9392505050565b5f819050919050565b5f67ffffffffffffffff82169050919050565b5f612b58612b53612b4e84612b22565b612147565b612b2b565b9050919050565b612b6881612b3e565b82525050565b5f602082019050612b815f830184612b5f565b92915050565b5f819050919050565b612ba1612b9c826121bb565b612b87565b82525050565b5f612bb28285612b90565b602082019150612bc28284612b90565b6020820191508190509392505050565b612bdb81612255565b82525050565b5f819050919050565b5f612c04612bff612bfa84612be1565b612147565b612483565b9050919050565b612c1481612bea565b82525050565b5f604082019050612c2d5f830185612bd2565b612c3a6020830184612c0b565b9392505050565b5f606082019050612c545f83018661233f565b612c61602083018561233f565b8181036040830152612c738184612298565b9050949350505050565b5f604082019050612c905f83018561233f565b8181036020830152612ca28184612298565b90509392505050565b5f81519050612cb9816121c4565b92915050565b5f60208284031215612cd457612cd361206d565b5b5f612ce184828501612cab565b91505092915050565b5f602082019050612cfd5f830184612bd2565b92915050565b5f604082019050612d165f830185612bd2565b612d23602083018461233f565b9392505050565b5f81519050919050565b5f81905092915050565b5f612d4882612d2a565b612d528185612d34565b9350612d628185602086016126e4565b80840191505092915050565b5f612d798284612d3e565b91508190509291505056fea26469706673582212204abdd07101459d882290a5413bfb85c5f6552a4319cee2eb40e1b57488170a6d64736f6c634300081c0033","linkReferences":{}},"methodIdentifiers":{"DEFAULT_ADMIN_ROLE()":"a217fddf","LEXICON_ORACLE_MANAGER_ROLE()":"4d27bb0e","UPGRADE_INTERFACE_VERSION()":"ad3cb1cc","consensusRequired(bytes32)":"54b72372","getConsensusHistory(bytes32,bytes32)":"df57b4c6","getCurrentConsensusParticipants(bytes32,bytes32)":"239ac3fd","getCurrentFieldDataHash(bytes32,bytes32)":"26b098b4","getParticipantsForConsensusDataHash(bytes32,bytes32,bytes32)":"5ebe790b","getRoleAdmin(bytes32)":"248a9ca3","getSubmitterCountForDataHash(bytes32,bytes32,bytes32)":"af38ba1c","grantRole(bytes32,address)":"2f2ff15d","hasRole(bytes32,address)":"91d14854","hasUserSubmittedDataHash(bytes32,bytes32,bytes32,address)":"3f6913ec","initialize(uint256,address)":"da35a26f","minimumConsensus()":"d9fddf40","proxiableUUID()":"52d1902d","renounceRole(bytes32,address)":"36568abe","revokeRole(bytes32,address)":"d547741f","setConsensusRequired(bytes32,uint256)":"eb17c333","setVMahout(address)":"6b335ede","submitBatchData((bytes32,bytes32,bytes32)[])":"b35d6ef2","submitData(bytes32,bytes32,bytes32)":"281ec99b","supportsInterface(bytes4)":"01ffc9a7","updateMinimumConsensus(uint256)":"40954696","upgradeToAndCall(address,bytes)":"4f1ef286","vMahout()":"02192a94"},"id":0}