{"abi":[{"type":"constructor","inputs":[{"name":"initialOwner","type":"address","internalType":"address"}],"stateMutability":"nonpayable"},{"type":"function","name":"UPGRADE_INTERFACE_VERSION","inputs":[],"outputs":[{"name":"","type":"string","internalType":"string"}],"stateMutability":"view"},{"type":"function","name":"owner","inputs":[],"outputs":[{"name":"","type":"address","internalType":"address"}],"stateMutability":"view"},{"type":"function","name":"renounceOwnership","inputs":[],"outputs":[],"stateMutability":"nonpayable"},{"type":"function","name":"transferOwnership","inputs":[{"name":"newOwner","type":"address","internalType":"address"}],"outputs":[],"stateMutability":"nonpayable"},{"type":"function","name":"upgradeAndCall","inputs":[{"name":"proxy","type":"address","internalType":"contract ITransparentUpgradeableProxy"},{"name":"implementation","type":"address","internalType":"address"},{"name":"data","type":"bytes","internalType":"bytes"}],"outputs":[],"stateMutability":"payable"},{"type":"event","name":"OwnershipTransferred","inputs":[{"name":"previousOwner","type":"address","indexed":true,"internalType":"address"},{"name":"newOwner","type":"address","indexed":true,"internalType":"address"}],"anonymous":false},{"type":"error","name":"OwnableInvalidOwner","inputs":[{"name":"owner","type":"address","internalType":"address"}]},{"type":"error","name":"OwnableUnauthorizedAccount","inputs":[{"name":"account","type":"address","internalType":"address"}]}],"bytecode":{"object":"0x60803460b857601f61040a38819003918201601f19168301916001600160401b0383118484101760bc5780849260209460405283398101031260b857516001600160a01b0381169081900360b857801560a5575f80546001600160a01b031981168317825560405192916001600160a01b03909116907f8be0079c531659141344cd1fd0a4f28419497f9722a3daafe3b4186f6b6457e09080a361033990816100d18239f35b631e4fbdf760e01b5f525f60045260245ffd5b5f80fd5b634e487b7160e01b5f52604160045260245ffdfe60806040526004361015610011575f80fd5b5f5f3560e01c8063715018a6146102765780638da5cb5b1461024f5780639623609d1461012c578063ad3cb1cc146100df5763f2fde38b14610051575f80fd5b346100dc5760203660031901126100dc576004356001600160a01b038116908190036100da5761007f610313565b80156100c65781546001600160a01b03198116821783556001600160a01b03167f8be0079c531659141344cd1fd0a4f28419497f9722a3daafe3b4186f6b6457e08380a380f35b631e4fbdf760e01b82526004829052602482fd5b505b80fd5b50346100dc57806003193601126100dc57506101286040516101026040826102cd565b60058152640352e302e360dc1b60208201526040519182916020835260208301906102ef565b0390f35b506060366003190112610237576004356001600160a01b03811690819003610237576024356001600160a01b038116908190036102375760443567ffffffffffffffff8111610237573660238201121561023757806004013567ffffffffffffffff811161023b57604051916101ac601f8301601f1916602001846102cd565b818352366024838301011161023757815f9260246020930183860137830101526101d4610313565b823b156102375761020a925f9260405180958194829363278f794360e11b845260048401526040602484015260448301906102ef565b039134905af1801561022c5761021e575080f35b61022a91505f906102cd565b005b6040513d5f823e3d90fd5b5f80fd5b634e487b7160e01b5f52604160045260245ffd5b34610237575f366003190112610237575f546040516001600160a01b039091168152602090f35b34610237575f3660031901126102375761028e610313565b5f80546001600160a01b0319811682556001600160a01b03167f8be0079c531659141344cd1fd0a4f28419497f9722a3daafe3b4186f6b6457e08280a3005b90601f8019910116810190811067ffffffffffffffff82111761023b57604052565b805180835260209291819084018484015e5f828201840152601f01601f1916010190565b5f546001600160a01b0316330361032657565b63118cdaa760e01b5f523360045260245ffd","linkReferences":{}},"methodIdentifiers":{"UPGRADE_INTERFACE_VERSION()":"ad3cb1cc","owner()":"8da5cb5b","renounceOwnership()":"715018a6","transferOwnership(address)":"f2fde38b","upgradeAndCall(address,address,bytes)":"9623609d"},"storageLayout":{"storage":[{"astId":39486,"contract":"lib/openzeppelin-contracts/contracts/proxy/transparent/ProxyAdmin.sol:ProxyAdmin","label":"_owner","offset":0,"slot":"0","type":"t_address"}],"types":{"t_address":{"encoding":"inplace","label":"address","numberOfBytes":"20"}}},"id":43}